{
  "contractName": "ElectronDAO",
  "abi": [
    {
      "inputs": [
        {
          "internalType": "address",
          "name": "_usdtAddress",
          "type": "address"
        },
        {
          "internalType": "uint256",
          "name": "_target",
          "type": "uint256"
        }
      ],
      "stateMutability": "nonpayable",
      "type": "constructor"
    },
    {
      "anonymous": false,
      "inputs": [
        {
          "indexed": true,
          "internalType": "address",
          "name": "provider",
          "type": "address"
        },
        {
          "indexed": true,
          "internalType": "uint256",
          "name": "amount",
          "type": "uint256"
        }
      ],
      "name": "AddUsdt",
      "type": "event"
    },
    {
      "anonymous": false,
      "inputs": [
        {
          "indexed": true,
          "internalType": "address",
          "name": "owner",
          "type": "address"
        },
        {
          "indexed": true,
          "internalType": "address",
          "name": "spender",
          "type": "address"
        },
        {
          "indexed": false,
          "internalType": "uint256",
          "name": "value",
          "type": "uint256"
        }
      ],
      "name": "Approval",
      "type": "event"
    },
    {
      "anonymous": false,
      "inputs": [
        {
          "indexed": true,
          "internalType": "address",
          "name": "provider",
          "type": "address"
        },
        {
          "indexed": true,
          "internalType": "uint256",
          "name": "amount",
          "type": "uint256"
        }
      ],
      "name": "RemoveUsdt",
      "type": "event"
    },
    {
      "anonymous": false,
      "inputs": [
        {
          "indexed": true,
          "internalType": "address",
          "name": "from",
          "type": "address"
        },
        {
          "indexed": true,
          "internalType": "address",
          "name": "to",
          "type": "address"
        },
        {
          "indexed": false,
          "internalType": "uint256",
          "name": "value",
          "type": "uint256"
        }
      ],
      "name": "Transfer",
      "type": "event"
    },
    {
      "anonymous": false,
      "inputs": [
        {
          "indexed": true,
          "internalType": "address",
          "name": "buyer",
          "type": "address"
        },
        {
          "indexed": true,
          "internalType": "uint256",
          "name": "XerraSold",
          "type": "uint256"
        },
        {
          "indexed": true,
          "internalType": "uint256",
          "name": "UsdtBuy",
          "type": "uint256"
        }
      ],
      "name": "UsdtBuy",
      "type": "event"
    },
    {
      "anonymous": false,
      "inputs": [
        {
          "indexed": true,
          "internalType": "address",
          "name": "buyer",
          "type": "address"
        },
        {
          "indexed": true,
          "internalType": "uint256",
          "name": "UsdtSold",
          "type": "uint256"
        },
        {
          "indexed": true,
          "internalType": "uint256",
          "name": "XerraBuy",
          "type": "uint256"
        }
      ],
      "name": "XerraBuy",
      "type": "event"
    },
    {
      "anonymous": false,
      "inputs": [
        {
          "indexed": true,
          "internalType": "uint256",
          "name": "amount",
          "type": "uint256"
        }
      ],
      "name": "etrIncrease",
      "type": "event"
    },
    {
      "anonymous": false,
      "inputs": [
        {
          "indexed": true,
          "internalType": "uint256",
          "name": "amount",
          "type": "uint256"
        }
      ],
      "name": "etrReduce",
      "type": "event"
    },
    {
      "inputs": [
        {
          "internalType": "address",
          "name": "owner",
          "type": "address"
        },
        {
          "internalType": "address",
          "name": "spender",
          "type": "address"
        }
      ],
      "name": "allowance",
      "outputs": [
        {
          "internalType": "uint256",
          "name": "",
          "type": "uint256"
        }
      ],
      "stateMutability": "view",
      "type": "function",
      "constant": true
    },
    {
      "inputs": [
        {
          "internalType": "address",
          "name": "spender",
          "type": "address"
        },
        {
          "internalType": "uint256",
          "name": "amount",
          "type": "uint256"
        }
      ],
      "name": "approve",
      "outputs": [
        {
          "internalType": "bool",
          "name": "",
          "type": "bool"
        }
      ],
      "stateMutability": "nonpayable",
      "type": "function"
    },
    {
      "inputs": [
        {
          "internalType": "address",
          "name": "account",
          "type": "address"
        }
      ],
      "name": "balanceOf",
      "outputs": [
        {
          "internalType": "uint256",
          "name": "",
          "type": "uint256"
        }
      ],
      "stateMutability": "view",
      "type": "function",
      "constant": true
    },
    {
      "inputs": [
        {
          "internalType": "address",
          "name": "",
          "type": "address"
        }
      ],
      "name": "bondRecord",
      "outputs": [
        {
          "internalType": "uint256",
          "name": "",
          "type": "uint256"
        }
      ],
      "stateMutability": "view",
      "type": "function",
      "constant": true
    },
    {
      "inputs": [],
      "name": "decimals",
      "outputs": [
        {
          "internalType": "uint8",
          "name": "",
          "type": "uint8"
        }
      ],
      "stateMutability": "view",
      "type": "function",
      "constant": true
    },
    {
      "inputs": [
        {
          "internalType": "address",
          "name": "spender",
          "type": "address"
        },
        {
          "internalType": "uint256",
          "name": "subtractedValue",
          "type": "uint256"
        }
      ],
      "name": "decreaseAllowance",
      "outputs": [
        {
          "internalType": "bool",
          "name": "",
          "type": "bool"
        }
      ],
      "stateMutability": "nonpayable",
      "type": "function"
    },
    {
      "inputs": [
        {
          "internalType": "address",
          "name": "spender",
          "type": "address"
        },
        {
          "internalType": "uint256",
          "name": "addedValue",
          "type": "uint256"
        }
      ],
      "name": "increaseAllowance",
      "outputs": [
        {
          "internalType": "bool",
          "name": "",
          "type": "bool"
        }
      ],
      "stateMutability": "nonpayable",
      "type": "function"
    },
    {
      "inputs": [],
      "name": "name",
      "outputs": [
        {
          "internalType": "string",
          "name": "",
          "type": "string"
        }
      ],
      "stateMutability": "view",
      "type": "function",
      "constant": true
    },
    {
      "inputs": [],
      "name": "symbol",
      "outputs": [
        {
          "internalType": "string",
          "name": "",
          "type": "string"
        }
      ],
      "stateMutability": "view",
      "type": "function",
      "constant": true
    },
    {
      "inputs": [],
      "name": "target",
      "outputs": [
        {
          "internalType": "uint256",
          "name": "",
          "type": "uint256"
        }
      ],
      "stateMutability": "view",
      "type": "function",
      "constant": true
    },
    {
      "inputs": [],
      "name": "totalSupply",
      "outputs": [
        {
          "internalType": "uint256",
          "name": "",
          "type": "uint256"
        }
      ],
      "stateMutability": "view",
      "type": "function",
      "constant": true
    },
    {
      "inputs": [
        {
          "internalType": "address",
          "name": "to",
          "type": "address"
        },
        {
          "internalType": "uint256",
          "name": "amount",
          "type": "uint256"
        }
      ],
      "name": "transfer",
      "outputs": [
        {
          "internalType": "bool",
          "name": "",
          "type": "bool"
        }
      ],
      "stateMutability": "nonpayable",
      "type": "function"
    },
    {
      "inputs": [
        {
          "internalType": "address",
          "name": "from",
          "type": "address"
        },
        {
          "internalType": "address",
          "name": "to",
          "type": "address"
        },
        {
          "internalType": "uint256",
          "name": "amount",
          "type": "uint256"
        }
      ],
      "name": "transferFrom",
      "outputs": [
        {
          "internalType": "bool",
          "name": "",
          "type": "bool"
        }
      ],
      "stateMutability": "nonpayable",
      "type": "function"
    },
    {
      "inputs": [],
      "name": "usdtAddress",
      "outputs": [
        {
          "internalType": "address",
          "name": "",
          "type": "address"
        }
      ],
      "stateMutability": "view",
      "type": "function",
      "constant": true
    },
    {
      "inputs": [],
      "name": "calculatePreSale",
      "outputs": [
        {
          "internalType": "uint256",
          "name": "",
          "type": "uint256"
        }
      ],
      "stateMutability": "view",
      "type": "function",
      "constant": true
    },
    {
      "inputs": [
        {
          "internalType": "address",
          "name": "_tokenAddress",
          "type": "address"
        }
      ],
      "name": "getReserve",
      "outputs": [
        {
          "internalType": "uint256",
          "name": "",
          "type": "uint256"
        }
      ],
      "stateMutability": "view",
      "type": "function",
      "constant": true
    },
    {
      "inputs": [
        {
          "internalType": "uint256",
          "name": "amount",
          "type": "uint256"
        }
      ],
      "name": "buyXerra",
      "outputs": [],
      "stateMutability": "nonpayable",
      "type": "function"
    },
    {
      "inputs": [
        {
          "internalType": "uint256",
          "name": "amount",
          "type": "uint256"
        }
      ],
      "name": "preSaleBuyXerra",
      "outputs": [],
      "stateMutability": "nonpayable",
      "type": "function"
    },
    {
      "inputs": [
        {
          "internalType": "uint256",
          "name": "amount",
          "type": "uint256"
        }
      ],
      "name": "buyUsdt",
      "outputs": [],
      "stateMutability": "nonpayable",
      "type": "function"
    },
    {
      "inputs": [
        {
          "internalType": "uint256",
          "name": "amount",
          "type": "uint256"
        }
      ],
      "name": "addUsdtLiquidity",
      "outputs": [],
      "stateMutability": "nonpayable",
      "type": "function"
    },
    {
      "inputs": [
        {
          "internalType": "uint256",
          "name": "amount",
          "type": "uint256"
        }
      ],
      "name": "withdrawUsdtLiquidity",
      "outputs": [],
      "stateMutability": "nonpayable",
      "type": "function"
    },
    {
      "inputs": [],
      "name": "getXerraReserve",
      "outputs": [
        {
          "internalType": "uint256",
          "name": "",
          "type": "uint256"
        }
      ],
      "stateMutability": "view",
      "type": "function",
      "constant": true
    },
    {
      "inputs": [],
      "name": "getUsdtReserve",
      "outputs": [
        {
          "internalType": "uint256",
          "name": "",
          "type": "uint256"
        }
      ],
      "stateMutability": "view",
      "type": "function",
      "constant": true
    },
    {
      "inputs": [
        {
          "internalType": "uint256",
          "name": "xerraIn",
          "type": "uint256"
        }
      ],
      "name": "getUsdtAmount",
      "outputs": [
        {
          "internalType": "uint256",
          "name": "",
          "type": "uint256"
        }
      ],
      "stateMutability": "view",
      "type": "function",
      "constant": true
    },
    {
      "inputs": [
        {
          "internalType": "uint256",
          "name": "usdtIn",
          "type": "uint256"
        }
      ],
      "name": "getXerraAmount",
      "outputs": [
        {
          "internalType": "uint256",
          "name": "",
          "type": "uint256"
        }
      ],
      "stateMutability": "view",
      "type": "function",
      "constant": true
    },
    {
      "inputs": [],
      "name": "getMyUsdtStake",
      "outputs": [
        {
          "internalType": "uint256",
          "name": "",
          "type": "uint256"
        }
      ],
      "stateMutability": "view",
      "type": "function",
      "constant": true
    }
  ],
  "bytecode": "0x60806040523480156200001157600080fd5b5060405162002f0238038062002f0283398181016040528101906200003791906200045c565b6040518060400160405280600581526020017f58657272610000000000000000000000000000000000000000000000000000008152506040518060400160405280600381526020017f58524100000000000000000000000000000000000000000000000000000000008152508160039080519060200190620000bb92919062000307565b508060049080519060200190620000d492919062000307565b505050620000f4306a084595161401484a0000006200018560201b60201c565b81600660006101000a81548173ffffffffffffffffffffffffffffffffffffffff021916908373ffffffffffffffffffffffffffffffffffffffff1602179055508060078190555033600560006101000a81548173ffffffffffffffffffffffffffffffffffffffff021916908373ffffffffffffffffffffffffffffffffffffffff160217905550505062000644565b600073ffffffffffffffffffffffffffffffffffffffff168273ffffffffffffffffffffffffffffffffffffffff1603620001f7576040517f08c379a0000000000000000000000000000000000000000000000000000000008152600401620001ee9062000504565b60405180910390fd5b6200020b60008383620002fd60201b60201c565b80600260008282546200021f919062000555565b92505081905550806000808473ffffffffffffffffffffffffffffffffffffffff1673ffffffffffffffffffffffffffffffffffffffff168152602001908152602001600020600082825462000276919062000555565b925050819055508173ffffffffffffffffffffffffffffffffffffffff16600073ffffffffffffffffffffffffffffffffffffffff167fddf252ad1be2c89b69c2b068fc378daa952ba7f163c4a11628f55a4df523b3ef83604051620002dd9190620005c3565b60405180910390a3620002f9600083836200030260201b60201c565b5050565b505050565b505050565b82805462000315906200060f565b90600052602060002090601f01602090048101928262000339576000855562000385565b82601f106200035457805160ff191683800117855562000385565b8280016001018555821562000385579182015b828111156200038457825182559160200191906001019062000367565b5b50905062000394919062000398565b5090565b5b80821115620003b357600081600090555060010162000399565b5090565b600080fd5b600073ffffffffffffffffffffffffffffffffffffffff82169050919050565b6000620003e982620003bc565b9050919050565b620003fb81620003dc565b81146200040757600080fd5b50565b6000815190506200041b81620003f0565b92915050565b6000819050919050565b620004368162000421565b81146200044257600080fd5b50565b60008151905062000456816200042b565b92915050565b60008060408385031215620004765762000475620003b7565b5b600062000486858286016200040a565b9250506020620004998582860162000445565b9150509250929050565b600082825260208201905092915050565b7f45524332303a206d696e7420746f20746865207a65726f206164647265737300600082015250565b6000620004ec601f83620004a3565b9150620004f982620004b4565b602082019050919050565b600060208201905081810360008301526200051f81620004dd565b9050919050565b7f4e487b7100000000000000000000000000000000000000000000000000000000600052601160045260246000fd5b6000620005628262000421565b91506200056f8362000421565b9250827fffffffffffffffffffffffffffffffffffffffffffffffffffffffffffffffff03821115620005a757620005a662000526565b5b828201905092915050565b620005bd8162000421565b82525050565b6000602082019050620005da6000830184620005b2565b92915050565b7f4e487b7100000000000000000000000000000000000000000000000000000000600052602260045260246000fd5b600060028204905060018216806200062857607f821691505b6020821081036200063e576200063d620005e0565b5b50919050565b6128ae80620006546000396000f3fe608060405234801561001057600080fd5b506004361061018e5760003560e01c80637c730e54116100de578063a457c2d711610097578063d4b8399211610071578063d4b83992146104c1578063dc9ea809146104df578063dd62ed3e1461050f578063f1cd90e91461053f5761018e565b8063a457c2d714610431578063a9059cbb14610461578063c9a396e9146104915761018e565b80637c730e541461036f5780637ee5e31c1461039f578063823eb472146103bd57806395d89b41146103d957806396ee56d1146103f75780639ab4a445146104135761018e565b806323b872dd1161014b578063395093511161012557806339509351146102c157806339537229146102f157806370a082311461030f57806374f388ef1461033f5761018e565b806323b872dd14610257578063313ce56714610287578063375df90c146102a55761018e565b806306fdde0314610193578063095ea7b3146101b15780630b075fa2146101e1578063103f0134146101ff57806318160ddd1461021d5780631e16dd8f1461023b575b600080fd5b61019b61055b565b6040516101a89190611e85565b60405180910390f35b6101cb60048036038101906101c69190611f40565b6105ed565b6040516101d89190611f9b565b60405180910390f35b6101e9610610565b6040516101f69190611fc5565b60405180910390f35b610207610642565b6040516102149190611fc5565b60405180910390f35b610225610689565b6040516102329190611fc5565b60405180910390f35b61025560048036038101906102509190611fe0565b610693565b005b610271600480360381019061026c919061200d565b610978565b60405161027e9190611f9b565b60405180910390f35b61028f6109a7565b60405161029c919061207c565b60405180910390f35b6102bf60048036038101906102ba9190611fe0565b6109b0565b005b6102db60048036038101906102d69190611f40565b610bc1565b6040516102e89190611f9b565b60405180910390f35b6102f9610bf8565b6040516103069190611fc5565b60405180910390f35b61032960048036038101906103249190612097565b610c87565b6040516103369190611fc5565b60405180910390f35b61035960048036038101906103549190611fe0565b610ccf565b6040516103669190611fc5565b60405180910390f35b61038960048036038101906103849190611fe0565b610d26565b6040516103969190611fc5565b60405180910390f35b6103a7610d7d565b6040516103b49190611fc5565b60405180910390f35b6103d760048036038101906103d29190611fe0565b610d8d565b005b6103e16110a8565b6040516103ee9190611e85565b60405180910390f35b610411600480360381019061040c9190611fe0565b61113a565b005b61041b61135e565b60405161042891906120d3565b60405180910390f35b61044b60048036038101906104469190611f40565b611384565b6040516104589190611f9b565b60405180910390f35b61047b60048036038101906104769190611f40565b6113fb565b6040516104889190611f9b565b60405180910390f35b6104ab60048036038101906104a69190612097565b61141e565b6040516104b89190611fc5565b60405180910390f35b6104c96114a1565b6040516104d69190611fc5565b60405180910390f35b6104f960048036038101906104f49190612097565b6114a7565b6040516105069190611fc5565b60405180910390f35b610529600480360381019061052491906120ee565b6114bf565b6040516105369190611fc5565b60405180910390f35b61055960048036038101906105549190611fe0565b611546565b005b60606003805461056a9061215d565b80601f01602080910402602001604051908101604052809291908181526020018280546105969061215d565b80156105e35780601f106105b8576101008083540402835291602001916105e3565b820191906000526020600020905b8154815290600101906020018083116105c657829003601f168201915b5050505050905090565b6000806105f8611861565b9050610605818585611869565b600191505092915050565b600061063d600660009054906101000a900473ffffffffffffffffffffffffffffffffffffffff1661141e565b905090565b6000600860003373ffffffffffffffffffffffffffffffffffffffff1673ffffffffffffffffffffffffffffffffffffffff16815260200190815260200160002054905090565b6000600254905090565b600081116106d6576040517f08c379a00000000000000000000000000000000000000000000000000000000081526004016106cd906121da565b60405180910390fd5b6000816106e1610bf8565b6106eb9190612229565b9050600660009054906101000a900473ffffffffffffffffffffffffffffffffffffffff1673ffffffffffffffffffffffffffffffffffffffff1663095ea7b333846040518363ffffffff1660e01b815260040161074a929190612283565b6020604051808303816000875af1158015610769573d6000803e3d6000fd5b505050506040513d601f19601f8201168201806040525081019061078d91906122d8565b503073ffffffffffffffffffffffffffffffffffffffff1663095ea7b330836040518363ffffffff1660e01b81526004016107c9929190612283565b6020604051808303816000875af11580156107e8573d6000803e3d6000fd5b505050506040513d601f19601f8201168201806040525081019061080c91906122d8565b50600660009054906101000a900473ffffffffffffffffffffffffffffffffffffffff1673ffffffffffffffffffffffffffffffffffffffff166323b872dd3330856040518463ffffffff1660e01b815260040161086c93929190612305565b6020604051808303816000875af115801561088b573d6000803e3d6000fd5b505050506040513d601f19601f820116820180604052508101906108af91906122d8565b503073ffffffffffffffffffffffffffffffffffffffff1663a9059cbb33836040518363ffffffff1660e01b81526004016108eb929190612283565b6020604051808303816000875af115801561090a573d6000803e3d6000fd5b505050506040513d601f19601f8201168201806040525081019061092e91906122d8565b5080823373ffffffffffffffffffffffffffffffffffffffff167fc1648998625a246749e9b99fe78ee0aa257be67d75b659d0de79328c4d98a00660405160405180910390a45050565b600080610983611861565b9050610990858285611a32565b61099b858585611abe565b60019150509392505050565b60006012905090565b600081116109f3576040517f08c379a00000000000000000000000000000000000000000000000000000000081526004016109ea906121da565b60405180910390fd5b6000600860003373ffffffffffffffffffffffffffffffffffffffff1673ffffffffffffffffffffffffffffffffffffffff16815260200190815260200160002081905550600660009054906101000a900473ffffffffffffffffffffffffffffffffffffffff1673ffffffffffffffffffffffffffffffffffffffff1663095ea7b330836040518363ffffffff1660e01b8152600401610a95929190612283565b6020604051808303816000875af1158015610ab4573d6000803e3d6000fd5b505050506040513d601f19601f82011682018060405250810190610ad891906122d8565b50600660009054906101000a900473ffffffffffffffffffffffffffffffffffffffff1673ffffffffffffffffffffffffffffffffffffffff1663a9059cbb33836040518363ffffffff1660e01b8152600401610b36929190612283565b6020604051808303816000875af1158015610b55573d6000803e3d6000fd5b505050506040513d601f19601f82011682018060405250810190610b7991906122d8565b50803373ffffffffffffffffffffffffffffffffffffffff167f0a2f8882ba9101d63642c401e0a0478143a5b99cd188db803466fe72e6845f3b60405160405180910390a350565b600080610bcc611861565b9050610bed818585610bde85896114bf565b610be8919061233c565b611869565b600191505092915050565b600060026007543073ffffffffffffffffffffffffffffffffffffffff166318160ddd6040518163ffffffff1660e01b8152600401602060405180830381865afa158015610c4a573d6000803e3d6000fd5b505050506040513d601f19601f82011682018060405250810190610c6e91906123a7565b610c789190612403565b610c829190612403565b905090565b60008060008373ffffffffffffffffffffffffffffffffffffffff1673ffffffffffffffffffffffffffffffffffffffff168152602001908152602001600020549050919050565b600080610cfd600660009054906101000a900473ffffffffffffffffffffffffffffffffffffffff1661141e565b90506000610d0a3061141e565b90506000610d19858385611d3d565b9050809350505050919050565b600080610d54600660009054906101000a900473ffffffffffffffffffffffffffffffffffffffff1661141e565b90506000610d613061141e565b90506000610d70858484611d3d565b9050809350505050919050565b6000610d883061141e565b905090565b60008111610dd0576040517f08c379a0000000000000000000000000000000000000000000000000000000008152600401610dc7906121da565b60405180910390fd5b6000610dfd600660009054906101000a900473ffffffffffffffffffffffffffffffffffffffff1661141e565b90506000610e0a3061141e565b90506000610e19848385611d3d565b90503073ffffffffffffffffffffffffffffffffffffffff1663095ea7b333866040518363ffffffff1660e01b8152600401610e56929190612283565b6020604051808303816000875af1158015610e75573d6000803e3d6000fd5b505050506040513d601f19601f82011682018060405250810190610e9991906122d8565b50600660009054906101000a900473ffffffffffffffffffffffffffffffffffffffff1673ffffffffffffffffffffffffffffffffffffffff1663095ea7b330836040518363ffffffff1660e01b8152600401610ef7929190612283565b6020604051808303816000875af1158015610f16573d6000803e3d6000fd5b505050506040513d601f19601f82011682018060405250810190610f3a91906122d8565b503073ffffffffffffffffffffffffffffffffffffffff166323b872dd3330876040518463ffffffff1660e01b8152600401610f7893929190612305565b6020604051808303816000875af1158015610f97573d6000803e3d6000fd5b505050506040513d601f19601f82011682018060405250810190610fbb91906122d8565b50600660009054906101000a900473ffffffffffffffffffffffffffffffffffffffff1673ffffffffffffffffffffffffffffffffffffffff1663a9059cbb33836040518363ffffffff1660e01b8152600401611019929190612283565b6020604051808303816000875af1158015611038573d6000803e3d6000fd5b505050506040513d601f19601f8201168201806040525081019061105c91906122d8565b5080843373ffffffffffffffffffffffffffffffffffffffff167f71b3f09af490fccd7b26bb9fea3b40bb83597883b6446b51c06682e6717051d660405160405180910390a450505050565b6060600480546110b79061215d565b80601f01602080910402602001604051908101604052809291908181526020018280546110e39061215d565b80156111305780601f1061110557610100808354040283529160200191611130565b820191906000526020600020905b81548152906001019060200180831161111357829003601f168201915b5050505050905090565b6000811161117d576040517f08c379a0000000000000000000000000000000000000000000000000000000008152600401611174906121da565b60405180910390fd5b80600860003373ffffffffffffffffffffffffffffffffffffffff1673ffffffffffffffffffffffffffffffffffffffff16815260200190815260200160002060008282546111cc919061233c565b92505081905550600660009054906101000a900473ffffffffffffffffffffffffffffffffffffffff1673ffffffffffffffffffffffffffffffffffffffff1663095ea7b333836040518363ffffffff1660e01b8152600401611230929190612283565b6020604051808303816000875af115801561124f573d6000803e3d6000fd5b505050506040513d601f19601f8201168201806040525081019061127391906122d8565b50600660009054906101000a900473ffffffffffffffffffffffffffffffffffffffff1673ffffffffffffffffffffffffffffffffffffffff166323b872dd3330846040518463ffffffff1660e01b81526004016112d393929190612305565b6020604051808303816000875af11580156112f2573d6000803e3d6000fd5b505050506040513d601f19601f8201168201806040525081019061131691906122d8565b50803373ffffffffffffffffffffffffffffffffffffffff167ff9f12bf9d9b2c8dafc127be049aa94778a5a104c2ee97ed38f3ba26cb692dc7b60405160405180910390a350565b600660009054906101000a900473ffffffffffffffffffffffffffffffffffffffff1681565b60008061138f611861565b9050600061139d82866114bf565b9050838110156113e2576040517f08c379a00000000000000000000000000000000000000000000000000000000081526004016113d9906124a6565b60405180910390fd5b6113ef8286868403611869565b60019250505092915050565b600080611406611861565b9050611413818585611abe565b600191505092915050565b60008173ffffffffffffffffffffffffffffffffffffffff166370a08231306040518263ffffffff1660e01b815260040161145991906120d3565b602060405180830381865afa158015611476573d6000803e3d6000fd5b505050506040513d601f19601f8201168201806040525081019061149a91906123a7565b9050919050565b60075481565b60086020528060005260406000206000915090505481565b6000600160008473ffffffffffffffffffffffffffffffffffffffff1673ffffffffffffffffffffffffffffffffffffffff16815260200190815260200160002060008373ffffffffffffffffffffffffffffffffffffffff1673ffffffffffffffffffffffffffffffffffffffff16815260200190815260200160002054905092915050565b60008111611589576040517f08c379a0000000000000000000000000000000000000000000000000000000008152600401611580906121da565b60405180910390fd5b60006115b6600660009054906101000a900473ffffffffffffffffffffffffffffffffffffffff1661141e565b905060006115c33061141e565b905060006115d2848484611d3d565b9050600660009054906101000a900473ffffffffffffffffffffffffffffffffffffffff1673ffffffffffffffffffffffffffffffffffffffff1663095ea7b333866040518363ffffffff1660e01b8152600401611631929190612283565b6020604051808303816000875af1158015611650573d6000803e3d6000fd5b505050506040513d601f19601f8201168201806040525081019061167491906122d8565b503073ffffffffffffffffffffffffffffffffffffffff1663095ea7b330836040518363ffffffff1660e01b81526004016116b0929190612283565b6020604051808303816000875af11580156116cf573d6000803e3d6000fd5b505050506040513d601f19601f820116820180604052508101906116f391906122d8565b50600660009054906101000a900473ffffffffffffffffffffffffffffffffffffffff1673ffffffffffffffffffffffffffffffffffffffff166323b872dd3330876040518463ffffffff1660e01b815260040161175393929190612305565b6020604051808303816000875af1158015611772573d6000803e3d6000fd5b505050506040513d601f19601f8201168201806040525081019061179691906122d8565b503073ffffffffffffffffffffffffffffffffffffffff1663a9059cbb33836040518363ffffffff1660e01b81526004016117d2929190612283565b6020604051808303816000875af11580156117f1573d6000803e3d6000fd5b505050506040513d601f19601f8201168201806040525081019061181591906122d8565b5080843373ffffffffffffffffffffffffffffffffffffffff167fc1648998625a246749e9b99fe78ee0aa257be67d75b659d0de79328c4d98a00660405160405180910390a450505050565b600033905090565b600073ffffffffffffffffffffffffffffffffffffffff168373ffffffffffffffffffffffffffffffffffffffff16036118d8576040517f08c379a00000000000000000000000000000000000000000000000000000000081526004016118cf90612538565b60405180910390fd5b600073ffffffffffffffffffffffffffffffffffffffff168273ffffffffffffffffffffffffffffffffffffffff1603611947576040517f08c379a000000000000000000000000000000000000000000000000000000000815260040161193e906125ca565b60405180910390fd5b80600160008573ffffffffffffffffffffffffffffffffffffffff1673ffffffffffffffffffffffffffffffffffffffff16815260200190815260200160002060008473ffffffffffffffffffffffffffffffffffffffff1673ffffffffffffffffffffffffffffffffffffffff168152602001908152602001600020819055508173ffffffffffffffffffffffffffffffffffffffff168373ffffffffffffffffffffffffffffffffffffffff167f8c5be1e5ebec7d5bd14f71427d1e84f3dd0314c0f7b2291e5b200ac8c7c3b92583604051611a259190611fc5565b60405180910390a3505050565b6000611a3e84846114bf565b90507fffffffffffffffffffffffffffffffffffffffffffffffffffffffffffffffff8114611ab85781811015611aaa576040517f08c379a0000000000000000000000000000000000000000000000000000000008152600401611aa190612636565b60405180910390fd5b611ab78484848403611869565b5b50505050565b600073ffffffffffffffffffffffffffffffffffffffff168373ffffffffffffffffffffffffffffffffffffffff1603611b2d576040517f08c379a0000000000000000000000000000000000000000000000000000000008152600401611b24906126c8565b60405180910390fd5b600073ffffffffffffffffffffffffffffffffffffffff168273ffffffffffffffffffffffffffffffffffffffff1603611b9c576040517f08c379a0000000000000000000000000000000000000000000000000000000008152600401611b939061275a565b60405180910390fd5b611ba7838383611de2565b60008060008573ffffffffffffffffffffffffffffffffffffffff1673ffffffffffffffffffffffffffffffffffffffff16815260200190815260200160002054905081811015611c2d576040517f08c379a0000000000000000000000000000000000000000000000000000000008152600401611c24906127ec565b60405180910390fd5b8181036000808673ffffffffffffffffffffffffffffffffffffffff1673ffffffffffffffffffffffffffffffffffffffff16815260200190815260200160002081905550816000808573ffffffffffffffffffffffffffffffffffffffff1673ffffffffffffffffffffffffffffffffffffffff1681526020019081526020016000206000828254611cc0919061233c565b925050819055508273ffffffffffffffffffffffffffffffffffffffff168473ffffffffffffffffffffffffffffffffffffffff167fddf252ad1be2c89b69c2b068fc378daa952ba7f163c4a11628f55a4df523b3ef84604051611d249190611fc5565b60405180910390a3611d37848484611de7565b50505050565b60008083118015611d4e5750600082115b611d8d576040517f08c379a0000000000000000000000000000000000000000000000000000000008152600401611d8490612858565b60405180910390fd5b6000606185611d9c9190612229565b905060008382611dac9190612229565b9050600082606487611dbe9190612229565b611dc8919061233c565b90508082611dd69190612403565b93505050509392505050565b505050565b505050565b600081519050919050565b600082825260208201905092915050565b60005b83811015611e26578082015181840152602081019050611e0b565b83811115611e35576000848401525b50505050565b6000601f19601f8301169050919050565b6000611e5782611dec565b611e618185611df7565b9350611e71818560208601611e08565b611e7a81611e3b565b840191505092915050565b60006020820190508181036000830152611e9f8184611e4c565b905092915050565b600080fd5b600073ffffffffffffffffffffffffffffffffffffffff82169050919050565b6000611ed782611eac565b9050919050565b611ee781611ecc565b8114611ef257600080fd5b50565b600081359050611f0481611ede565b92915050565b6000819050919050565b611f1d81611f0a565b8114611f2857600080fd5b50565b600081359050611f3a81611f14565b92915050565b60008060408385031215611f5757611f56611ea7565b5b6000611f6585828601611ef5565b9250506020611f7685828601611f2b565b9150509250929050565b60008115159050919050565b611f9581611f80565b82525050565b6000602082019050611fb06000830184611f8c565b92915050565b611fbf81611f0a565b82525050565b6000602082019050611fda6000830184611fb6565b92915050565b600060208284031215611ff657611ff5611ea7565b5b600061200484828501611f2b565b91505092915050565b60008060006060848603121561202657612025611ea7565b5b600061203486828701611ef5565b935050602061204586828701611ef5565b925050604061205686828701611f2b565b9150509250925092565b600060ff82169050919050565b61207681612060565b82525050565b6000602082019050612091600083018461206d565b92915050565b6000602082840312156120ad576120ac611ea7565b5b60006120bb84828501611ef5565b91505092915050565b6120cd81611ecc565b82525050565b60006020820190506120e860008301846120c4565b92915050565b6000806040838503121561210557612104611ea7565b5b600061211385828601611ef5565b925050602061212485828601611ef5565b9150509250929050565b7f4e487b7100000000000000000000000000000000000000000000000000000000600052602260045260246000fd5b6000600282049050600182168061217557607f821691505b6020821081036121885761218761212e565b5b50919050565b7f6e6f742067726561746572207468616e20300000000000000000000000000000600082015250565b60006121c4601283611df7565b91506121cf8261218e565b602082019050919050565b600060208201905081810360008301526121f3816121b7565b9050919050565b7f4e487b7100000000000000000000000000000000000000000000000000000000600052601160045260246000fd5b600061223482611f0a565b915061223f83611f0a565b9250817fffffffffffffffffffffffffffffffffffffffffffffffffffffffffffffffff0483118215151615612278576122776121fa565b5b828202905092915050565b600060408201905061229860008301856120c4565b6122a56020830184611fb6565b9392505050565b6122b581611f80565b81146122c057600080fd5b50565b6000815190506122d2816122ac565b92915050565b6000602082840312156122ee576122ed611ea7565b5b60006122fc848285016122c3565b91505092915050565b600060608201905061231a60008301866120c4565b61232760208301856120c4565b6123346040830184611fb6565b949350505050565b600061234782611f0a565b915061235283611f0a565b9250827fffffffffffffffffffffffffffffffffffffffffffffffffffffffffffffffff03821115612387576123866121fa565b5b828201905092915050565b6000815190506123a181611f14565b92915050565b6000602082840312156123bd576123bc611ea7565b5b60006123cb84828501612392565b91505092915050565b7f4e487b7100000000000000000000000000000000000000000000000000000000600052601260045260246000fd5b600061240e82611f0a565b915061241983611f0a565b925082612429576124286123d4565b5b828204905092915050565b7f45524332303a2064656372656173656420616c6c6f77616e63652062656c6f7760008201527f207a65726f000000000000000000000000000000000000000000000000000000602082015250565b6000612490602583611df7565b915061249b82612434565b604082019050919050565b600060208201905081810360008301526124bf81612483565b9050919050565b7f45524332303a20617070726f76652066726f6d20746865207a65726f2061646460008201527f7265737300000000000000000000000000000000000000000000000000000000602082015250565b6000612522602483611df7565b915061252d826124c6565b604082019050919050565b6000602082019050818103600083015261255181612515565b9050919050565b7f45524332303a20617070726f766520746f20746865207a65726f20616464726560008201527f7373000000000000000000000000000000000000000000000000000000000000602082015250565b60006125b4602283611df7565b91506125bf82612558565b604082019050919050565b600060208201905081810360008301526125e3816125a7565b9050919050565b7f45524332303a20696e73756666696369656e7420616c6c6f77616e6365000000600082015250565b6000612620601d83611df7565b915061262b826125ea565b602082019050919050565b6000602082019050818103600083015261264f81612613565b9050919050565b7f45524332303a207472616e736665722066726f6d20746865207a65726f20616460008201527f6472657373000000000000000000000000000000000000000000000000000000602082015250565b60006126b2602583611df7565b91506126bd82612656565b604082019050919050565b600060208201905081810360008301526126e1816126a5565b9050919050565b7f45524332303a207472616e7366657220746f20746865207a65726f206164647260008201527f6573730000000000000000000000000000000000000000000000000000000000602082015250565b6000612744602383611df7565b915061274f826126e8565b604082019050919050565b6000602082019050818103600083015261277381612737565b9050919050565b7f45524332303a207472616e7366657220616d6f756e742065786365656473206260008201527f616c616e63650000000000000000000000000000000000000000000000000000602082015250565b60006127d6602683611df7565b91506127e18261277a565b604082019050919050565b60006020820190508181036000830152612805816127c9565b9050919050565b7f696e76616c696420726573657276657300000000000000000000000000000000600082015250565b6000612842601083611df7565b915061284d8261280c565b602082019050919050565b6000602082019050818103600083015261287181612835565b905091905056fea26469706673582212202f06fba1474ae66d7645eb5bb61336ae7c7a38238b79b9cddd610eff5145e9bb64736f6c634300080d0033",
  "immutableReferences": {},
  "source": "pragma solidity ^0.8.13;\r\n\r\nimport \"@openzeppelin/contracts/token/ERC20/ERC20.sol\";\r\nimport \"@openzeppelin/contracts/token/ERC20/IERC20.sol\";\r\n\r\ncontract ElectronDAO is ERC20 {\r\n    address private owner;\r\n    address public usdtAddress;\r\n    uint256 public target;\r\n    mapping(address=>uint256) public bondRecord;\r\n\r\n\r\n\r\n\r\n\r\n    constructor(address _usdtAddress,uint256 _target) ERC20('Xerra','XRA'){\r\n        _mint(address(this), 10000000 ether);\r\n        usdtAddress = _usdtAddress; \r\n        target = _target;\r\n        owner = msg.sender;\r\n    }\r\n\r\n    event UsdtBuy(\r\n        address indexed buyer,\r\n        uint256 indexed XerraSold,\r\n        uint256 indexed UsdtBuy\r\n    );\r\n\r\n    event XerraBuy(\r\n        address indexed buyer,\r\n        uint256 indexed UsdtSold,\r\n        uint256 indexed XerraBuy\r\n    );\r\n\r\n    event AddUsdt(\r\n        address indexed provider,\r\n        uint256 indexed amount\r\n    );\r\n\r\n    event RemoveUsdt(\r\n        address indexed provider,\r\n        uint256 indexed amount\r\n    );\r\n\r\n    event etrReduce(\r\n        uint256 indexed amount\r\n    );\r\n\r\n    event etrIncrease(\r\n        uint256 indexed amount\r\n    );\r\n\r\n\r\n    function getAmount(\r\n        uint256 inputAmount,\r\n        uint256 inputReserve,\r\n        uint256 outputReserve\r\n    ) private pure returns (uint256) {\r\n        require(inputReserve > 0 && outputReserve > 0, \"invalid reserves\");\r\n        // 3% fee\r\n        uint256 inputAmountWithFee = inputAmount * 97;\r\n        uint256 numerator = inputAmountWithFee * outputReserve;\r\n        uint256 denominator = (inputReserve * 100) + inputAmountWithFee;\r\n        return numerator / denominator;\r\n    }\r\n\r\n\r\n    function calculatePreSale() public view returns(uint256){\r\n        return ((IERC20(address(this)).totalSupply())/target)/2;\r\n    }\r\n\r\n    function getAmountNofee(\r\n        uint256 inputAmount,\r\n        uint256 inputReserve,\r\n        uint256 outputReserve\r\n    ) private pure returns (uint256){\r\n        require(inputReserve > 0 && outputReserve > 0, \"invalid reserves\");\r\n        uint256 k = inputReserve*outputReserve;\r\n        uint256 new_reserve = k/(inputReserve + inputAmount);\r\n        uint256 output_no_fee = outputReserve - new_reserve;\r\n        return output_no_fee;\r\n    }\r\n\r\n    function getReserve(address _tokenAddress) public view returns (uint256) {\r\n        return IERC20(_tokenAddress).balanceOf(address(this));\r\n    }\r\n\r\n    // invest xerra\r\n    function buyXerra(uint256 amount) external {\r\n        require(amount > 0 ,'not greater than 0');\r\n        uint256 usdtReserve = getReserve(usdtAddress);\r\n        uint256 xerraReserve = getReserve(address(this));\r\n        uint256 xerra_out = getAmount(amount,usdtReserve,xerraReserve);\r\n        IERC20(usdtAddress).approve(msg.sender,amount);\r\n        IERC20(address(this)).approve(address(this),xerra_out);\r\n        IERC20(usdtAddress).transferFrom(msg.sender,address(this),amount);\r\n        IERC20(address(this)).transfer(msg.sender,xerra_out);\r\n        emit XerraBuy(msg.sender, amount,xerra_out);\r\n    }\r\n\r\n\r\n    function preSaleBuyXerra(uint256 amount) external {\r\n        require(amount > 0,'not greater than 0');\r\n        uint256 xerra_out = calculatePreSale()*amount;\r\n        IERC20(usdtAddress).approve(msg.sender,amount);\r\n        IERC20(address(this)).approve(address(this),xerra_out);\r\n        IERC20(usdtAddress).transferFrom(msg.sender,address(this),amount);\r\n        IERC20(address(this)).transfer(msg.sender,xerra_out);\r\n        emit XerraBuy(msg.sender, amount,xerra_out);\r\n    }\r\n\r\n    // sell xerra\r\n    function buyUsdt(uint256 amount) external {\r\n        require(amount > 0, \"not greater than 0\");\r\n        uint256 usdtReserve = getReserve(usdtAddress);\r\n        uint256 xerraReserve = getReserve(address(this));\r\n        uint256 usdt_out = getAmount(amount,xerraReserve,usdtReserve);\r\n        IERC20(address(this)).approve(msg.sender,amount);\r\n        IERC20(usdtAddress).approve(address(this),usdt_out);\r\n        IERC20(address(this)).transferFrom(msg.sender,address(this),amount);\r\n        IERC20(usdtAddress).transfer(msg.sender,usdt_out);\r\n        emit UsdtBuy(msg.sender, amount,usdt_out);\r\n    }\r\n\r\n    // usdt bond\r\n    function addUsdtLiquidity(uint256 amount) external {\r\n        require(amount > 0, \"not greater than 0\");\r\n        bondRecord[msg.sender] +=amount;\r\n        IERC20(usdtAddress).approve(msg.sender,amount);\r\n        IERC20(usdtAddress).transferFrom(msg.sender,address(this),amount);\r\n        emit AddUsdt(msg.sender,amount);\r\n    }\r\n\r\n    // usdt bond cash out\r\n    function withdrawUsdtLiquidity(uint256 amount) external {\r\n        require(amount > 0, \"not greater than 0\");\r\n        bondRecord[msg.sender] = 0;\r\n        IERC20(usdtAddress).approve(address(this),amount);\r\n        IERC20(usdtAddress).transfer(msg.sender,amount);\r\n        emit RemoveUsdt(msg.sender,amount);\r\n    }\r\n\r\n\r\n\r\n    // // etr price too high\r\n    // function reduceEtrPrice(uint256 amount,address etrAddress) public {\r\n    //     bool success = IERC20(usdtAddress).approve(address(etrAddress), amount);\r\n    //     if(success) {\r\n    //         uint256 usdtReserve = getReserve(usdtAddress);\r\n    //         uint256 xerraReserve = getReserve(address(this));\r\n    //         uint256 xerra_out = getAmount(amount,usdtReserve,xerraReserve);\r\n    //         IERC20(usdtAddress).approve(address(etrAddress),amount);\r\n    //         IERC20(address(this)).approve(address(this),xerra_out);\r\n    //         IERC20(usdtAddress).transferFrom(address(etrAddress),address(this),amount);\r\n    //         IERC20(address(this)).transfer(address(etrAddress),xerra_out);\r\n    //         emit etrReduce(amount);\r\n    //     }\r\n    // }\r\n\r\n\r\n    // // etr price too low\r\n    // function increaseEtrPrice(uint256 amount) public {\r\n    //     require(amount > 0, \"not greater than 0\");\r\n    //     bool success = IERC20(usdtAddress).approve(address(this), amount);\r\n    //     if(success){\r\n    //         uint256 usdtReserve = getReserve(usdtAddress);\r\n    //         uint256 xerraReserve = getReserve(address(this));\r\n    //         uint256 usdt_out = getAmount(amount,xerraReserve,usdtReserve);\r\n    //         IERC20(address(this)).transferFrom(address(etrAddress),address(this),amount);\r\n    //         IERC20(usdtAddress).transfer(address(etrAddress),usdt_out);\r\n    //         emit etrIncrease(amount);\r\n    //     }\r\n    // }\r\n\r\n\r\n\r\n    function getXerraReserve() external view returns(uint256){\r\n        return getReserve(address(this));\r\n    }\r\n\r\n    function getUsdtReserve() external view returns(uint256){\r\n        return getReserve(usdtAddress);\r\n    }\r\n\r\n    function getUsdtAmount(uint256 xerraIn) external view returns(uint256){\r\n        uint256 usdtReserve = getReserve(usdtAddress);\r\n        uint256 xerraReserve = getReserve(address(this));\r\n        uint256 usdt_out = getAmount(xerraIn,xerraReserve,usdtReserve);\r\n        return usdt_out;\r\n    }\r\n\r\n    function getXerraAmount(uint256 usdtIn) external view returns (uint256){\r\n        uint256 usdtReserve = getReserve(usdtAddress);\r\n        uint256 xerraReserve = getReserve(address(this));\r\n        uint256 xerra_out = getAmount(usdtIn,usdtReserve,xerraReserve);\r\n        return xerra_out;\r\n    }\r\n\r\n    function getMyUsdtStake() external view returns (uint256){\r\n        return bondRecord[msg.sender];\r\n    }\r\n\r\n\r\n}",
  "sourcePath": "C:\\Users\\Hong\\Desktop\\electron\\Frontend\\contracts\\ElectronDAO.sol",
  "compiler": {
    "name": "solc",
    "version": "0.8.13+commit.abaa5c0e.Emscripten.clang"
  },
  "schemaVersion": "3.4.7",
  "updatedAt": "2022-08-15T15:02:08.321Z",
  "networkType": "ethereum",
  "devdoc": {
    "kind": "dev",
    "methods": {
      "allowance(address,address)": {
        "details": "See {IERC20-allowance}."
      },
      "approve(address,uint256)": {
        "details": "See {IERC20-approve}. NOTE: If `amount` is the maximum `uint256`, the allowance is not updated on `transferFrom`. This is semantically equivalent to an infinite approval. Requirements: - `spender` cannot be the zero address."
      },
      "balanceOf(address)": {
        "details": "See {IERC20-balanceOf}."
      },
      "decimals()": {
        "details": "Returns the number of decimals used to get its user representation. For example, if `decimals` equals `2`, a balance of `505` tokens should be displayed to a user as `5.05` (`505 / 10 ** 2`). Tokens usually opt for a value of 18, imitating the relationship between Ether and Wei. This is the value {ERC20} uses, unless this function is overridden; NOTE: This information is only used for _display_ purposes: it in no way affects any of the arithmetic of the contract, including {IERC20-balanceOf} and {IERC20-transfer}."
      },
      "decreaseAllowance(address,uint256)": {
        "details": "Atomically decreases the allowance granted to `spender` by the caller. This is an alternative to {approve} that can be used as a mitigation for problems described in {IERC20-approve}. Emits an {Approval} event indicating the updated allowance. Requirements: - `spender` cannot be the zero address. - `spender` must have allowance for the caller of at least `subtractedValue`."
      },
      "increaseAllowance(address,uint256)": {
        "details": "Atomically increases the allowance granted to `spender` by the caller. This is an alternative to {approve} that can be used as a mitigation for problems described in {IERC20-approve}. Emits an {Approval} event indicating the updated allowance. Requirements: - `spender` cannot be the zero address."
      },
      "name()": {
        "details": "Returns the name of the token."
      },
      "symbol()": {
        "details": "Returns the symbol of the token, usually a shorter version of the name."
      },
      "totalSupply()": {
        "details": "See {IERC20-totalSupply}."
      },
      "transfer(address,uint256)": {
        "details": "See {IERC20-transfer}. Requirements: - `to` cannot be the zero address. - the caller must have a balance of at least `amount`."
      },
      "transferFrom(address,address,uint256)": {
        "details": "See {IERC20-transferFrom}. Emits an {Approval} event indicating the updated allowance. This is not required by the EIP. See the note at the beginning of {ERC20}. NOTE: Does not update the allowance if the current allowance is the maximum `uint256`. Requirements: - `from` and `to` cannot be the zero address. - `from` must have a balance of at least `amount`. - the caller must have allowance for ``from``'s tokens of at least `amount`."
      }
    },
    "version": 1
  },
  "userdoc": {
    "kind": "user",
    "methods": {},
    "version": 1
  }
}