{
  "contractName": "Pool",
  "abi": [
    {
      "inputs": [
        {
          "internalType": "address",
          "name": "token",
          "type": "address"
        },
        {
          "internalType": "uint256",
          "name": "_tokenTarget",
          "type": "uint256"
        },
        {
          "internalType": "uint256",
          "name": "_etrTarget",
          "type": "uint256"
        }
      ],
      "stateMutability": "nonpayable",
      "type": "constructor"
    },
    {
      "anonymous": false,
      "inputs": [
        {
          "indexed": true,
          "internalType": "address",
          "name": "provider",
          "type": "address"
        },
        {
          "indexed": true,
          "internalType": "uint256",
          "name": "token2Amount",
          "type": "uint256"
        }
      ],
      "name": "AddEtr",
      "type": "event"
    },
    {
      "anonymous": false,
      "inputs": [
        {
          "indexed": true,
          "internalType": "address",
          "name": "provider",
          "type": "address"
        },
        {
          "indexed": true,
          "internalType": "uint256",
          "name": "token1Amount",
          "type": "uint256"
        }
      ],
      "name": "AddToken",
      "type": "event"
    },
    {
      "anonymous": false,
      "inputs": [
        {
          "indexed": true,
          "internalType": "address",
          "name": "owner",
          "type": "address"
        },
        {
          "indexed": true,
          "internalType": "address",
          "name": "spender",
          "type": "address"
        },
        {
          "indexed": false,
          "internalType": "uint256",
          "name": "value",
          "type": "uint256"
        }
      ],
      "name": "Approval",
      "type": "event"
    },
    {
      "anonymous": false,
      "inputs": [
        {
          "indexed": true,
          "internalType": "address",
          "name": "provider",
          "type": "address"
        },
        {
          "indexed": true,
          "internalType": "uint256",
          "name": "electricityAmount",
          "type": "uint256"
        }
      ],
      "name": "ElectricityIn",
      "type": "event"
    },
    {
      "anonymous": false,
      "inputs": [
        {
          "indexed": true,
          "internalType": "address",
          "name": "provider",
          "type": "address"
        },
        {
          "indexed": true,
          "internalType": "uint256",
          "name": "electricityAmount",
          "type": "uint256"
        }
      ],
      "name": "ElectricityOut",
      "type": "event"
    },
    {
      "anonymous": false,
      "inputs": [
        {
          "indexed": true,
          "internalType": "address",
          "name": "buyer",
          "type": "address"
        },
        {
          "indexed": true,
          "internalType": "uint256",
          "name": "token1Sold",
          "type": "uint256"
        },
        {
          "indexed": true,
          "internalType": "uint256",
          "name": "token2Bought",
          "type": "uint256"
        }
      ],
      "name": "EtrBuy",
      "type": "event"
    },
    {
      "anonymous": false,
      "inputs": [
        {
          "indexed": true,
          "internalType": "address",
          "name": "provider",
          "type": "address"
        },
        {
          "indexed": true,
          "internalType": "uint256",
          "name": "token2Amount",
          "type": "uint256"
        }
      ],
      "name": "RemoveEtr",
      "type": "event"
    },
    {
      "anonymous": false,
      "inputs": [
        {
          "indexed": true,
          "internalType": "address",
          "name": "provider",
          "type": "address"
        },
        {
          "indexed": true,
          "internalType": "uint256",
          "name": "token1Amount",
          "type": "uint256"
        }
      ],
      "name": "RemoveToken",
      "type": "event"
    },
    {
      "anonymous": false,
      "inputs": [
        {
          "indexed": true,
          "internalType": "address",
          "name": "buyer",
          "type": "address"
        },
        {
          "indexed": true,
          "internalType": "uint256",
          "name": "token2Sold",
          "type": "uint256"
        },
        {
          "indexed": true,
          "internalType": "uint256",
          "name": "token1Bought",
          "type": "uint256"
        }
      ],
      "name": "TokenBuy",
      "type": "event"
    },
    {
      "anonymous": false,
      "inputs": [
        {
          "indexed": true,
          "internalType": "address",
          "name": "from",
          "type": "address"
        },
        {
          "indexed": true,
          "internalType": "address",
          "name": "to",
          "type": "address"
        },
        {
          "indexed": false,
          "internalType": "uint256",
          "name": "value",
          "type": "uint256"
        }
      ],
      "name": "Transfer",
      "type": "event"
    },
    {
      "anonymous": false,
      "inputs": [
        {
          "indexed": true,
          "internalType": "address",
          "name": "provider",
          "type": "address"
        },
        {
          "indexed": false,
          "internalType": "uint256",
          "name": "amount",
          "type": "uint256"
        }
      ],
      "name": "etrRewardGiveOut",
      "type": "event"
    },
    {
      "anonymous": false,
      "inputs": [
        {
          "indexed": true,
          "internalType": "address",
          "name": "provider",
          "type": "address"
        },
        {
          "indexed": false,
          "internalType": "uint256",
          "name": "amount",
          "type": "uint256"
        }
      ],
      "name": "tokenRewardGiveOut",
      "type": "event"
    },
    {
      "inputs": [
        {
          "internalType": "address",
          "name": "owner",
          "type": "address"
        },
        {
          "internalType": "address",
          "name": "spender",
          "type": "address"
        }
      ],
      "name": "allowance",
      "outputs": [
        {
          "internalType": "uint256",
          "name": "",
          "type": "uint256"
        }
      ],
      "stateMutability": "view",
      "type": "function",
      "constant": true
    },
    {
      "inputs": [
        {
          "internalType": "address",
          "name": "spender",
          "type": "address"
        },
        {
          "internalType": "uint256",
          "name": "amount",
          "type": "uint256"
        }
      ],
      "name": "approve",
      "outputs": [
        {
          "internalType": "bool",
          "name": "",
          "type": "bool"
        }
      ],
      "stateMutability": "nonpayable",
      "type": "function"
    },
    {
      "inputs": [
        {
          "internalType": "address",
          "name": "account",
          "type": "address"
        }
      ],
      "name": "balanceOf",
      "outputs": [
        {
          "internalType": "uint256",
          "name": "",
          "type": "uint256"
        }
      ],
      "stateMutability": "view",
      "type": "function",
      "constant": true
    },
    {
      "inputs": [],
      "name": "decimals",
      "outputs": [
        {
          "internalType": "uint8",
          "name": "",
          "type": "uint8"
        }
      ],
      "stateMutability": "view",
      "type": "function",
      "constant": true
    },
    {
      "inputs": [
        {
          "internalType": "address",
          "name": "spender",
          "type": "address"
        },
        {
          "internalType": "uint256",
          "name": "subtractedValue",
          "type": "uint256"
        }
      ],
      "name": "decreaseAllowance",
      "outputs": [
        {
          "internalType": "bool",
          "name": "",
          "type": "bool"
        }
      ],
      "stateMutability": "nonpayable",
      "type": "function"
    },
    {
      "inputs": [],
      "name": "etrRewardBalance",
      "outputs": [
        {
          "internalType": "uint256",
          "name": "",
          "type": "uint256"
        }
      ],
      "stateMutability": "view",
      "type": "function",
      "constant": true
    },
    {
      "inputs": [
        {
          "internalType": "uint256",
          "name": "",
          "type": "uint256"
        }
      ],
      "name": "etrRewardList",
      "outputs": [
        {
          "internalType": "address",
          "name": "",
          "type": "address"
        }
      ],
      "stateMutability": "view",
      "type": "function",
      "constant": true
    },
    {
      "inputs": [
        {
          "internalType": "address",
          "name": "",
          "type": "address"
        }
      ],
      "name": "etrRewardRecord",
      "outputs": [
        {
          "internalType": "uint256",
          "name": "",
          "type": "uint256"
        }
      ],
      "stateMutability": "view",
      "type": "function",
      "constant": true
    },
    {
      "inputs": [
        {
          "internalType": "address",
          "name": "",
          "type": "address"
        }
      ],
      "name": "etrStakeBalance",
      "outputs": [
        {
          "internalType": "uint256",
          "name": "",
          "type": "uint256"
        }
      ],
      "stateMutability": "view",
      "type": "function",
      "constant": true
    },
    {
      "inputs": [],
      "name": "etrTarget",
      "outputs": [
        {
          "internalType": "uint256",
          "name": "",
          "type": "uint256"
        }
      ],
      "stateMutability": "view",
      "type": "function",
      "constant": true
    },
    {
      "inputs": [
        {
          "internalType": "address",
          "name": "spender",
          "type": "address"
        },
        {
          "internalType": "uint256",
          "name": "addedValue",
          "type": "uint256"
        }
      ],
      "name": "increaseAllowance",
      "outputs": [
        {
          "internalType": "bool",
          "name": "",
          "type": "bool"
        }
      ],
      "stateMutability": "nonpayable",
      "type": "function"
    },
    {
      "inputs": [],
      "name": "name",
      "outputs": [
        {
          "internalType": "string",
          "name": "",
          "type": "string"
        }
      ],
      "stateMutability": "view",
      "type": "function",
      "constant": true
    },
    {
      "inputs": [],
      "name": "symbol",
      "outputs": [
        {
          "internalType": "string",
          "name": "",
          "type": "string"
        }
      ],
      "stateMutability": "view",
      "type": "function",
      "constant": true
    },
    {
      "inputs": [],
      "name": "tokenAddress",
      "outputs": [
        {
          "internalType": "address",
          "name": "",
          "type": "address"
        }
      ],
      "stateMutability": "view",
      "type": "function",
      "constant": true
    },
    {
      "inputs": [],
      "name": "tokenRewardBalance",
      "outputs": [
        {
          "internalType": "uint256",
          "name": "",
          "type": "uint256"
        }
      ],
      "stateMutability": "view",
      "type": "function",
      "constant": true
    },
    {
      "inputs": [
        {
          "internalType": "uint256",
          "name": "",
          "type": "uint256"
        }
      ],
      "name": "tokenRewardList",
      "outputs": [
        {
          "internalType": "address",
          "name": "",
          "type": "address"
        }
      ],
      "stateMutability": "view",
      "type": "function",
      "constant": true
    },
    {
      "inputs": [
        {
          "internalType": "address",
          "name": "",
          "type": "address"
        }
      ],
      "name": "tokenRewardRecord",
      "outputs": [
        {
          "internalType": "uint256",
          "name": "",
          "type": "uint256"
        }
      ],
      "stateMutability": "view",
      "type": "function",
      "constant": true
    },
    {
      "inputs": [
        {
          "internalType": "address",
          "name": "",
          "type": "address"
        }
      ],
      "name": "tokenStakeBalance",
      "outputs": [
        {
          "internalType": "uint256",
          "name": "",
          "type": "uint256"
        }
      ],
      "stateMutability": "view",
      "type": "function",
      "constant": true
    },
    {
      "inputs": [],
      "name": "tokenTarget",
      "outputs": [
        {
          "internalType": "uint256",
          "name": "",
          "type": "uint256"
        }
      ],
      "stateMutability": "view",
      "type": "function",
      "constant": true
    },
    {
      "inputs": [],
      "name": "totalElectricity",
      "outputs": [
        {
          "internalType": "uint256",
          "name": "",
          "type": "uint256"
        }
      ],
      "stateMutability": "view",
      "type": "function",
      "constant": true
    },
    {
      "inputs": [],
      "name": "totalSupply",
      "outputs": [
        {
          "internalType": "uint256",
          "name": "",
          "type": "uint256"
        }
      ],
      "stateMutability": "view",
      "type": "function",
      "constant": true
    },
    {
      "inputs": [
        {
          "internalType": "address",
          "name": "to",
          "type": "address"
        },
        {
          "internalType": "uint256",
          "name": "amount",
          "type": "uint256"
        }
      ],
      "name": "transfer",
      "outputs": [
        {
          "internalType": "bool",
          "name": "",
          "type": "bool"
        }
      ],
      "stateMutability": "nonpayable",
      "type": "function"
    },
    {
      "inputs": [
        {
          "internalType": "address",
          "name": "from",
          "type": "address"
        },
        {
          "internalType": "address",
          "name": "to",
          "type": "address"
        },
        {
          "internalType": "uint256",
          "name": "amount",
          "type": "uint256"
        }
      ],
      "name": "transferFrom",
      "outputs": [
        {
          "internalType": "bool",
          "name": "",
          "type": "bool"
        }
      ],
      "stateMutability": "nonpayable",
      "type": "function"
    },
    {
      "inputs": [
        {
          "internalType": "address",
          "name": "_tokenAddress",
          "type": "address"
        }
      ],
      "name": "getReserve",
      "outputs": [
        {
          "internalType": "uint256",
          "name": "",
          "type": "uint256"
        }
      ],
      "stateMutability": "view",
      "type": "function",
      "constant": true
    },
    {
      "inputs": [
        {
          "internalType": "uint256",
          "name": "amount",
          "type": "uint256"
        }
      ],
      "name": "EtrToTokenSwap",
      "outputs": [],
      "stateMutability": "nonpayable",
      "type": "function"
    },
    {
      "inputs": [
        {
          "internalType": "uint256",
          "name": "amount",
          "type": "uint256"
        }
      ],
      "name": "tokenToEtrSwap",
      "outputs": [],
      "stateMutability": "nonpayable",
      "type": "function"
    },
    {
      "inputs": [
        {
          "internalType": "uint256",
          "name": "amount",
          "type": "uint256"
        }
      ],
      "name": "addTokenLiquidity",
      "outputs": [],
      "stateMutability": "nonpayable",
      "type": "function"
    },
    {
      "inputs": [
        {
          "internalType": "uint256",
          "name": "amount",
          "type": "uint256"
        }
      ],
      "name": "addEtrLiquidity",
      "outputs": [],
      "stateMutability": "nonpayable",
      "type": "function"
    },
    {
      "inputs": [
        {
          "internalType": "uint256",
          "name": "amount",
          "type": "uint256"
        }
      ],
      "name": "withdrawTokenLiquidity",
      "outputs": [],
      "stateMutability": "nonpayable",
      "type": "function"
    },
    {
      "inputs": [
        {
          "internalType": "uint256",
          "name": "amount",
          "type": "uint256"
        }
      ],
      "name": "withdrawEtrLiquidity",
      "outputs": [],
      "stateMutability": "nonpayable",
      "type": "function"
    },
    {
      "inputs": [
        {
          "internalType": "uint256",
          "name": "_electricityIn",
          "type": "uint256"
        }
      ],
      "name": "electricityToEtr",
      "outputs": [],
      "stateMutability": "nonpayable",
      "type": "function"
    },
    {
      "inputs": [
        {
          "internalType": "uint256",
          "name": "_electricityOut",
          "type": "uint256"
        }
      ],
      "name": "etrToElectricity",
      "outputs": [],
      "stateMutability": "nonpayable",
      "type": "function"
    },
    {
      "inputs": [
        {
          "internalType": "uint256",
          "name": "_etrIn",
          "type": "uint256"
        }
      ],
      "name": "getTokenAmount",
      "outputs": [
        {
          "internalType": "uint256",
          "name": "",
          "type": "uint256"
        }
      ],
      "stateMutability": "view",
      "type": "function",
      "constant": true
    },
    {
      "inputs": [
        {
          "internalType": "uint256",
          "name": "_tokenin",
          "type": "uint256"
        }
      ],
      "name": "getEtrAmount",
      "outputs": [
        {
          "internalType": "uint256",
          "name": "",
          "type": "uint256"
        }
      ],
      "stateMutability": "view",
      "type": "function",
      "constant": true
    },
    {
      "inputs": [
        {
          "internalType": "uint256",
          "name": "_tokenin",
          "type": "uint256"
        }
      ],
      "name": "getEtrAmountNofee",
      "outputs": [
        {
          "internalType": "uint256",
          "name": "",
          "type": "uint256"
        }
      ],
      "stateMutability": "view",
      "type": "function",
      "constant": true
    },
    {
      "inputs": [],
      "name": "getTotalEtrReserve",
      "outputs": [
        {
          "internalType": "uint256",
          "name": "",
          "type": "uint256"
        }
      ],
      "stateMutability": "view",
      "type": "function",
      "constant": true
    },
    {
      "inputs": [],
      "name": "getTotalEtrSupply",
      "outputs": [
        {
          "internalType": "uint256",
          "name": "",
          "type": "uint256"
        }
      ],
      "stateMutability": "view",
      "type": "function",
      "constant": true
    },
    {
      "inputs": [],
      "name": "getTotalTokenReserve",
      "outputs": [
        {
          "internalType": "uint256",
          "name": "",
          "type": "uint256"
        }
      ],
      "stateMutability": "view",
      "type": "function",
      "constant": true
    },
    {
      "inputs": [],
      "name": "getCurrentPrice",
      "outputs": [
        {
          "internalType": "uint256",
          "name": "",
          "type": "uint256"
        }
      ],
      "stateMutability": "view",
      "type": "function",
      "constant": true
    },
    {
      "inputs": [],
      "name": "getTokenRewardBalance",
      "outputs": [
        {
          "internalType": "uint256",
          "name": "",
          "type": "uint256"
        }
      ],
      "stateMutability": "view",
      "type": "function",
      "constant": true
    },
    {
      "inputs": [],
      "name": "getEtrRewardBalance",
      "outputs": [
        {
          "internalType": "uint256",
          "name": "",
          "type": "uint256"
        }
      ],
      "stateMutability": "view",
      "type": "function",
      "constant": true
    },
    {
      "inputs": [],
      "name": "getTokenRewardRatio",
      "outputs": [
        {
          "internalType": "uint256",
          "name": "",
          "type": "uint256"
        }
      ],
      "stateMutability": "view",
      "type": "function",
      "constant": true
    },
    {
      "inputs": [],
      "name": "getEtrRewardRatio",
      "outputs": [
        {
          "internalType": "uint256",
          "name": "",
          "type": "uint256"
        }
      ],
      "stateMutability": "view",
      "type": "function",
      "constant": true
    },
    {
      "inputs": [],
      "name": "getMyTokenStakeBalance",
      "outputs": [
        {
          "internalType": "uint256",
          "name": "",
          "type": "uint256"
        }
      ],
      "stateMutability": "view",
      "type": "function",
      "constant": true
    },
    {
      "inputs": [],
      "name": "getMyEtrStakeBalance",
      "outputs": [
        {
          "internalType": "uint256",
          "name": "",
          "type": "uint256"
        }
      ],
      "stateMutability": "view",
      "type": "function",
      "constant": true
    }
  ],
  "bytecode": "0x60806040523480156200001157600080fd5b5060405162003b8238038062003b828339818101604052810190620000379190620002c5565b6040518060400160405280600e81526020017f456c656374726f6e20546f6b656e0000000000000000000000000000000000008152506040518060400160405280600381526020017f45545200000000000000000000000000000000000000000000000000000000008152508160039080519060200190620000bb92919062000170565b508060049080519060200190620000d492919062000170565b50505082600660006101000a81548173ffffffffffffffffffffffffffffffffffffffff021916908373ffffffffffffffffffffffffffffffffffffffff16021790555033600560006101000a81548173ffffffffffffffffffffffffffffffffffffffff021916908373ffffffffffffffffffffffffffffffffffffffff1602179055508160098190555080600a8190555050505062000385565b8280546200017e9062000350565b90600052602060002090601f016020900481019282620001a25760008555620001ee565b82601f10620001bd57805160ff1916838001178555620001ee565b82800160010185558215620001ee579182015b82811115620001ed578251825591602001919060010190620001d0565b5b509050620001fd919062000201565b5090565b5b808211156200021c57600081600090555060010162000202565b5090565b600080fd5b600073ffffffffffffffffffffffffffffffffffffffff82169050919050565b6000620002528262000225565b9050919050565b620002648162000245565b81146200027057600080fd5b50565b600081519050620002848162000259565b92915050565b6000819050919050565b6200029f816200028a565b8114620002ab57600080fd5b50565b600081519050620002bf8162000294565b92915050565b600080600060608486031215620002e157620002e062000220565b5b6000620002f18682870162000273565b93505060206200030486828701620002ae565b92505060406200031786828701620002ae565b9150509250925092565b7f4e487b7100000000000000000000000000000000000000000000000000000000600052602260045260246000fd5b600060028204905060018216806200036957607f821691505b6020821081036200037f576200037e62000321565b5b50919050565b6137ed80620003956000396000f3fe608060405234801561001057600080fd5b506004361061027e5760003560e01c806375081b821161015c578063b25c9ac5116100ce578063e069281e11610087578063e069281e14610837578063e5799e7d14610855578063e640007e14610873578063eb91d37e14610891578063ee98a499146108af578063f004fdd0146108cd5761027e565b8063b25c9ac51461073f578063b5d2c2b61461075b578063c2507ac114610777578063c9a396e9146107a7578063d684176b146107d7578063dd62ed3e146108075761027e565b8063896ad1ec11610120578063896ad1ec1461065557806395d89b41146106855780639d76ea58146106a3578063a457c2d7146106c1578063a69d65e7146106f1578063a9059cbb1461070f5761027e565b806375081b821461059d578063782e1e6c146105cd5780637c8b4e24146105eb5780637f7e28521461061b5780638820fc84146106395761027e565b8063313ce567116101f557806347dd26f1116101b957806347dd26f1146104c95780634c225000146104e7578063665b177d1461050357806367f8f82e146105215780636f02d4f71461055157806370a082311461056d5761027e565b8063313ce5671461040f57806335cde4e51461042d57806336b2d2651461044b57806339509351146104695780633985b54c146104995761027e565b80630c150f74116102475780630c150f74146103255780630fa5f85b1461034357806318160ddd1461037357806318c519eb1461039157806323b872dd146103c15780632c8d24a6146103f15761027e565b8062e27b841461028357806304f9f26f1461029f57806306fdde03146102bb578063095ea7b3146102d95780630a823c6314610309575b600080fd5b61029d60048036038101906102989190612b36565b6108eb565b005b6102b960048036038101906102b49190612b36565b610a97565b005b6102c3610b2b565b6040516102d09190612bfc565b60405180910390f35b6102f360048036038101906102ee9190612c7c565b610bbd565b6040516103009190612cd7565b60405180910390f35b610323600480360381019061031e9190612b36565b610be0565b005b61032d610daa565b60405161033a9190612d01565b60405180910390f35b61035d60048036038101906103589190612d1c565b610db0565b60405161036a9190612d01565b60405180910390f35b61037b610dc8565b6040516103889190612d01565b60405180910390f35b6103ab60048036038101906103a69190612d1c565b610dd2565b6040516103b89190612d01565b60405180910390f35b6103db60048036038101906103d69190612d49565b610dea565b6040516103e89190612cd7565b60405180910390f35b6103f9610e19565b6040516104069190612d01565b60405180910390f35b610417610e23565b6040516104249190612db8565b60405180910390f35b610435610e2c565b6040516104429190612d01565b60405180910390f35b610453610e32565b6040516104609190612d01565b60405180910390f35b610483600480360381019061047e9190612c7c565b610e79565b6040516104909190612cd7565b60405180910390f35b6104b360048036038101906104ae9190612b36565b610eb0565b6040516104c09190612d01565b60405180910390f35b6104d1610f44565b6040516104de9190612d01565b60405180910390f35b61050160048036038101906104fc9190612b36565b610f4a565b005b61050b611118565b6040516105189190612d01565b60405180910390f35b61053b60048036038101906105369190612b36565b61115f565b6040516105489190612d01565b60405180910390f35b61056b60048036038101906105669190612b36565b6111f3565b005b61058760048036038101906105829190612d1c565b6114be565b6040516105949190612d01565b60405180910390f35b6105b760048036038101906105b29190612b36565b611506565b6040516105c49190612de2565b60405180910390f35b6105d5611545565b6040516105e29190612d01565b60405180910390f35b61060560048036038101906106009190612d1c565b61154b565b6040516106129190612d01565b60405180910390f35b610623611563565b6040516106309190612d01565b60405180910390f35b610653600480360381019061064e9190612b36565b6115aa565b005b61066f600480360381019061066a9190612b36565b61163e565b60405161067c9190612de2565b60405180910390f35b61068d61167d565b60405161069a9190612bfc565b60405180910390f35b6106ab61170f565b6040516106b89190612de2565b60405180910390f35b6106db60048036038101906106d69190612c7c565b611735565b6040516106e89190612cd7565b60405180910390f35b6106f96117ac565b6040516107069190612d01565b60405180910390f35b61072960048036038101906107249190612c7c565b6117bc565b6040516107369190612cd7565b60405180910390f35b61075960048036038101906107549190612b36565b6117df565b005b61077560048036038101906107709190612b36565b611aaa565b005b610791600480360381019061078c9190612b36565b611c96565b60405161079e9190612d01565b60405180910390f35b6107c160048036038101906107bc9190612d1c565b611d2a565b6040516107ce9190612d01565b60405180910390f35b6107f160048036038101906107ec9190612d1c565b611dad565b6040516107fe9190612d01565b60405180910390f35b610821600480360381019061081c9190612dfd565b611dc5565b60405161082e9190612d01565b60405180910390f35b61083f611e4c565b60405161084c9190612d01565b60405180910390f35b61085d611e93565b60405161086a9190612d01565b60405180910390f35b61087b611ec5565b6040516108889190612d01565b60405180910390f35b610899611ecf565b6040516108a69190612d01565b60405180910390f35b6108b7611f14565b6040516108c49190612d01565b60405180910390f35b6108d5611f1a565b6040516108e29190612d01565b60405180910390f35b6000811161092e576040517f08c379a000000000000000000000000000000000000000000000000000000000815260040161092590612e89565b60405180910390fd5b3073ffffffffffffffffffffffffffffffffffffffff166323b872dd3330846040518463ffffffff1660e01b815260040161096b93929190612ea9565b6020604051808303816000875af115801561098a573d6000803e3d6000fd5b505050506040513d601f19601f820116820180604052508101906109ae9190612f0c565b5080601160003373ffffffffffffffffffffffffffffffffffffffff1673ffffffffffffffffffffffffffffffffffffffff16815260200190815260200160002060008282546109fe9190612f68565b92505081905550610a0d611f29565b600f60003373ffffffffffffffffffffffffffffffffffffffff1673ffffffffffffffffffffffffffffffffffffffff16815260200190815260200160002081905550803373ffffffffffffffffffffffffffffffffffffffff167ffd1ae88bb6620b02ba90d5b86530ce0f2c20488eddd45b42201e0625fa31117560405160405180910390a350565b60008111610ada576040517f08c379a0000000000000000000000000000000000000000000000000000000008152600401610ad190612e89565b60405180910390fd5b610ae43382611f83565b803373ffffffffffffffffffffffffffffffffffffffff167f3c00c3f5247818b150f9a0f9e739dcbd2f9323b48ac25c11bbf412bc0ef728ad60405160405180910390a350565b606060038054610b3a90612fed565b80601f0160208091040260200160405190810160405280929190818152602001828054610b6690612fed565b8015610bb35780601f10610b8857610100808354040283529160200191610bb3565b820191906000526020600020905b815481529060010190602001808311610b9657829003601f168201915b5050505050905090565b600080610bc8612159565b9050610bd5818585612161565b600191505092915050565b60008111610c23576040517f08c379a0000000000000000000000000000000000000000000000000000000008152600401610c1a90612e89565b60405180910390fd5b6000610c2d61232a565b905081601160003373ffffffffffffffffffffffffffffffffffffffff1673ffffffffffffffffffffffffffffffffffffffff1681526020019081526020016000206000828254610c7e919061301e565b925050819055506000610c8f611f29565b905080600f60003373ffffffffffffffffffffffffffffffffffffffff1673ffffffffffffffffffffffffffffffffffffffff168152602001908152602001600020819055503073ffffffffffffffffffffffffffffffffffffffff166323b872dd30338587610cff9190612f68565b6040518463ffffffff1660e01b8152600401610d1d93929190612ea9565b6020604051808303816000875af1158015610d3c573d6000803e3d6000fd5b505050506040513d601f19601f82011682018060405250810190610d609190612f0c565b50823373ffffffffffffffffffffffffffffffffffffffff167fc7ba9545985c4d0cc29955d6760b2ad44ea71f9ddda876189364a3e957855ee860405160405180910390a3505050565b600b5481565b60106020528060005260406000206000915090505481565b6000600254905090565b600e6020528060005260406000206000915090505481565b600080610df5612159565b9050610e02858285612391565b610e0d85858561241d565b60019150509392505050565b6000600854905090565b60006012905090565b600a5481565b6000600e60003373ffffffffffffffffffffffffffffffffffffffff1673ffffffffffffffffffffffffffffffffffffffff16815260200190815260200160002054905090565b600080610e84612159565b9050610ea5818585610e968589611dc5565b610ea09190612f68565b612161565b600191505092915050565b6000808211610ef4576040517f08c379a0000000000000000000000000000000000000000000000000000000008152600401610eeb9061309e565b60405180910390fd5b6000610f21600660009054906101000a900473ffffffffffffffffffffffffffffffffffffffff16611d2a565b90506000610f2e30611d2a565b9050610f3b84838361269c565b92505050919050565b60085481565b60008111610f8d576040517f08c379a0000000000000000000000000000000000000000000000000000000008152600401610f8490612e89565b60405180910390fd5b600660009054906101000a900473ffffffffffffffffffffffffffffffffffffffff1673ffffffffffffffffffffffffffffffffffffffff166323b872dd3330846040518463ffffffff1660e01b8152600401610fec93929190612ea9565b6020604051808303816000875af115801561100b573d6000803e3d6000fd5b505050506040513d601f19601f8201168201806040525081019061102f9190612f0c565b5080601060003373ffffffffffffffffffffffffffffffffffffffff1673ffffffffffffffffffffffffffffffffffffffff168152602001908152602001600020600082825461107f9190612f68565b9250508190555061108e612741565b600e60003373ffffffffffffffffffffffffffffffffffffffff1673ffffffffffffffffffffffffffffffffffffffff16815260200190815260200160002081905550803373ffffffffffffffffffffffffffffffffffffffff167fe1bea1af9b1d1aede8b7fa043080de8690470a8ae61449360b3d0c0bf8104b4660405160405180910390a350565b6000601060003373ffffffffffffffffffffffffffffffffffffffff1673ffffffffffffffffffffffffffffffffffffffff16815260200190815260200160002054905090565b60008082116111a3576040517f08c379a000000000000000000000000000000000000000000000000000000000815260040161119a9061309e565b60405180910390fd5b60006111d0600660009054906101000a900473ffffffffffffffffffffffffffffffffffffffff16611d2a565b905060006111dd30611d2a565b90506111ea8483836127bd565b92505050919050565b60008111611236576040517f08c379a000000000000000000000000000000000000000000000000000000000815260040161122d90612e89565b60405180910390fd5b6000611263600660009054906101000a900473ffffffffffffffffffffffffffffffffffffffff16611d2a565b9050600061127030611d2a565b9050600061127f84848461269c565b9050600061128e8585856127bd565b90506000828261129e919061301e565b905080600860008282546112b29190612f68565b92505081905550600660009054906101000a900473ffffffffffffffffffffffffffffffffffffffff1673ffffffffffffffffffffffffffffffffffffffff166323b872dd3330896040518463ffffffff1660e01b815260040161131893929190612ea9565b6020604051808303816000875af1158015611337573d6000803e3d6000fd5b505050506040513d601f19601f8201168201806040525081019061135b9190612f0c565b503073ffffffffffffffffffffffffffffffffffffffff1663a9059cbb33856040518363ffffffff1660e01b81526004016113979291906130be565b6020604051808303816000875af11580156113b6573d6000803e3d6000fd5b505050506040513d601f19601f820116820180604052508101906113da9190612f0c565b506113e3612855565b601060003373ffffffffffffffffffffffffffffffffffffffff1673ffffffffffffffffffffffffffffffffffffffff1681526020019081526020016000208190555061142e6128d1565b601160003373ffffffffffffffffffffffffffffffffffffffff1673ffffffffffffffffffffffffffffffffffffffff1681526020019081526020016000208190555082863373ffffffffffffffffffffffffffffffffffffffff167fde9e11d0f00c7f3ae693d200fa2125f67f1864e66e8fa7166ae13c3fae1be18c60405160405180910390a4505050505050565b60008060008373ffffffffffffffffffffffffffffffffffffffff1673ffffffffffffffffffffffffffffffffffffffff168152602001908152602001600020549050919050565b600d818154811061151657600080fd5b906000526020600020016000915054906101000a900473ffffffffffffffffffffffffffffffffffffffff1681565b60095481565b600f6020528060005260406000206000915090505481565b6000600f60003373ffffffffffffffffffffffffffffffffffffffff1673ffffffffffffffffffffffffffffffffffffffff16815260200190815260200160002054905090565b600081116115ed576040517f08c379a00000000000000000000000000000000000000000000000000000000081526004016115e490612e89565b60405180910390fd5b6115f7338261292b565b803373ffffffffffffffffffffffffffffffffffffffff167f075d9e176797104b3464a05d5c96510234489322afc9a210e05765f44a0f4cab60405160405180910390a350565b600c818154811061164e57600080fd5b906000526020600020016000915054906101000a900473ffffffffffffffffffffffffffffffffffffffff1681565b60606004805461168c90612fed565b80601f01602080910402602001604051908101604052809291908181526020018280546116b890612fed565b80156117055780601f106116da57610100808354040283529160200191611705565b820191906000526020600020905b8154815290600101906020018083116116e857829003601f168201915b5050505050905090565b600660009054906101000a900473ffffffffffffffffffffffffffffffffffffffff1681565b600080611740612159565b9050600061174e8286611dc5565b905083811015611793576040517f08c379a000000000000000000000000000000000000000000000000000000000815260040161178a90613159565b60405180910390fd5b6117a08286868403612161565b60019250505092915050565b60006117b730611d2a565b905090565b6000806117c7612159565b90506117d481858561241d565b600191505092915050565b60008111611822576040517f08c379a000000000000000000000000000000000000000000000000000000000815260040161181990612e89565b60405180910390fd5b600061184f600660009054906101000a900473ffffffffffffffffffffffffffffffffffffffff16611d2a565b9050600061185c30611d2a565b9050600061186b84838561269c565b9050600061187a8584866127bd565b90506000828261188a919061301e565b9050806007600082825461189e9190612f68565b925050819055503073ffffffffffffffffffffffffffffffffffffffff166323b872dd3330896040518463ffffffff1660e01b81526004016118e293929190612ea9565b6020604051808303816000875af1158015611901573d6000803e3d6000fd5b505050506040513d601f19601f820116820180604052508101906119259190612f0c565b50600660009054906101000a900473ffffffffffffffffffffffffffffffffffffffff1673ffffffffffffffffffffffffffffffffffffffff1663a9059cbb33856040518363ffffffff1660e01b81526004016119839291906130be565b6020604051808303816000875af11580156119a2573d6000803e3d6000fd5b505050506040513d601f19601f820116820180604052508101906119c69190612f0c565b506119cf612855565b601060003373ffffffffffffffffffffffffffffffffffffffff1673ffffffffffffffffffffffffffffffffffffffff16815260200190815260200160002081905550611a1a6128d1565b601160003373ffffffffffffffffffffffffffffffffffffffff1673ffffffffffffffffffffffffffffffffffffffff1681526020019081526020016000208190555082863373ffffffffffffffffffffffffffffffffffffffff167f5798ec577126413c34eec76755f7164dc2f21b7d22d79c3c2a20d321dea24ba060405160405180910390a4505050505050565b60008111611aed576040517f08c379a0000000000000000000000000000000000000000000000000000000008152600401611ae490612e89565b60405180910390fd5b6000611af7612a8a565b905081601060003373ffffffffffffffffffffffffffffffffffffffff1673ffffffffffffffffffffffffffffffffffffffff1681526020019081526020016000206000828254611b48919061301e565b925050819055506000611b59612741565b905080600e60003373ffffffffffffffffffffffffffffffffffffffff1673ffffffffffffffffffffffffffffffffffffffff16815260200190815260200160002081905550600660009054906101000a900473ffffffffffffffffffffffffffffffffffffffff1673ffffffffffffffffffffffffffffffffffffffff166323b872dd30338587611beb9190612f68565b6040518463ffffffff1660e01b8152600401611c0993929190612ea9565b6020604051808303816000875af1158015611c28573d6000803e3d6000fd5b505050506040513d601f19601f82011682018060405250810190611c4c9190612f0c565b50823373ffffffffffffffffffffffffffffffffffffffff167f67f5552e5abc48ba6305130450943fa23b76a0b6eb18c29d3eea39559139fc5a60405160405180910390a3505050565b6000808211611cda576040517f08c379a0000000000000000000000000000000000000000000000000000000008152600401611cd19061309e565b60405180910390fd5b6000611d07600660009054906101000a900473ffffffffffffffffffffffffffffffffffffffff16611d2a565b90506000611d1430611d2a565b9050611d2184828461269c565b92505050919050565b60008173ffffffffffffffffffffffffffffffffffffffff166370a08231306040518263ffffffff1660e01b8152600401611d659190612de2565b602060405180830381865afa158015611d82573d6000803e3d6000fd5b505050506040513d601f19601f82011682018060405250810190611da6919061318e565b9050919050565b60116020528060005260406000206000915090505481565b6000600160008473ffffffffffffffffffffffffffffffffffffffff1673ffffffffffffffffffffffffffffffffffffffff16815260200190815260200160002060008373ffffffffffffffffffffffffffffffffffffffff1673ffffffffffffffffffffffffffffffffffffffff16815260200190815260200160002054905092915050565b6000601160003373ffffffffffffffffffffffffffffffffffffffff1673ffffffffffffffffffffffffffffffffffffffff16815260200190815260200160002054905090565b6000611ec0600660009054906101000a900473ffffffffffffffffffffffffffffffffffffffff16611d2a565b905090565b6000600754905090565b6000611eda30611d2a565b611f05600660009054906101000a900473ffffffffffffffffffffffffffffffffffffffff16611d2a565b611f0f91906131ea565b905090565b60075481565b6000611f24610dc8565b905090565b6000611f3430611d2a565b601160003373ffffffffffffffffffffffffffffffffffffffff1673ffffffffffffffffffffffffffffffffffffffff16815260200190815260200160002054611f7e91906131ea565b905090565b600073ffffffffffffffffffffffffffffffffffffffff168273ffffffffffffffffffffffffffffffffffffffff1603611ff2576040517f08c379a0000000000000000000000000000000000000000000000000000000008152600401611fe99061328d565b60405180910390fd5b611ffe82600083612af1565b60008060008473ffffffffffffffffffffffffffffffffffffffff1673ffffffffffffffffffffffffffffffffffffffff16815260200190815260200160002054905081811015612084576040517f08c379a000000000000000000000000000000000000000000000000000000000815260040161207b9061331f565b60405180910390fd5b8181036000808573ffffffffffffffffffffffffffffffffffffffff1673ffffffffffffffffffffffffffffffffffffffff1681526020019081526020016000208190555081600260008282546120db919061301e565b92505081905550600073ffffffffffffffffffffffffffffffffffffffff168373ffffffffffffffffffffffffffffffffffffffff167fddf252ad1be2c89b69c2b068fc378daa952ba7f163c4a11628f55a4df523b3ef846040516121409190612d01565b60405180910390a361215483600084612af6565b505050565b600033905090565b600073ffffffffffffffffffffffffffffffffffffffff168373ffffffffffffffffffffffffffffffffffffffff16036121d0576040517f08c379a00000000000000000000000000000000000000000000000000000000081526004016121c7906133b1565b60405180910390fd5b600073ffffffffffffffffffffffffffffffffffffffff168273ffffffffffffffffffffffffffffffffffffffff160361223f576040517f08c379a000000000000000000000000000000000000000000000000000000000815260040161223690613443565b60405180910390fd5b80600160008573ffffffffffffffffffffffffffffffffffffffff1673ffffffffffffffffffffffffffffffffffffffff16815260200190815260200160002060008473ffffffffffffffffffffffffffffffffffffffff1673ffffffffffffffffffffffffffffffffffffffff168152602001908152602001600020819055508173ffffffffffffffffffffffffffffffffffffffff168373ffffffffffffffffffffffffffffffffffffffff167f8c5be1e5ebec7d5bd14f71427d1e84f3dd0314c0f7b2291e5b200ac8c7c3b9258360405161231d9190612d01565b60405180910390a3505050565b6000670de0b6b3a7640000600f60003373ffffffffffffffffffffffffffffffffffffffff1673ffffffffffffffffffffffffffffffffffffffff168152602001908152602001600020546008546123829190613463565b61238c91906131ea565b905090565b600061239d8484611dc5565b90507fffffffffffffffffffffffffffffffffffffffffffffffffffffffffffffffff81146124175781811015612409576040517f08c379a000000000000000000000000000000000000000000000000000000000815260040161240090613509565b60405180910390fd5b6124168484848403612161565b5b50505050565b600073ffffffffffffffffffffffffffffffffffffffff168373ffffffffffffffffffffffffffffffffffffffff160361248c576040517f08c379a00000000000000000000000000000000000000000000000000000000081526004016124839061359b565b60405180910390fd5b600073ffffffffffffffffffffffffffffffffffffffff168273ffffffffffffffffffffffffffffffffffffffff16036124fb576040517f08c379a00000000000000000000000000000000000000000000000000000000081526004016124f29061362d565b60405180910390fd5b612506838383612af1565b60008060008573ffffffffffffffffffffffffffffffffffffffff1673ffffffffffffffffffffffffffffffffffffffff1681526020019081526020016000205490508181101561258c576040517f08c379a0000000000000000000000000000000000000000000000000000000008152600401612583906136bf565b60405180910390fd5b8181036000808673ffffffffffffffffffffffffffffffffffffffff1673ffffffffffffffffffffffffffffffffffffffff16815260200190815260200160002081905550816000808573ffffffffffffffffffffffffffffffffffffffff1673ffffffffffffffffffffffffffffffffffffffff168152602001908152602001600020600082825461261f9190612f68565b925050819055508273ffffffffffffffffffffffffffffffffffffffff168473ffffffffffffffffffffffffffffffffffffffff167fddf252ad1be2c89b69c2b068fc378daa952ba7f163c4a11628f55a4df523b3ef846040516126839190612d01565b60405180910390a3612696848484612af6565b50505050565b600080831180156126ad5750600082115b6126ec576040517f08c379a00000000000000000000000000000000000000000000000000000000081526004016126e39061372b565b60405180910390fd5b60006061856126fb9190613463565b90506000838261270b9190613463565b905060008260648761271d9190613463565b6127279190612f68565b9050808261273591906131ea565b93505050509392505050565b600061276e600660009054906101000a900473ffffffffffffffffffffffffffffffffffffffff16611d2a565b601060003373ffffffffffffffffffffffffffffffffffffffff1673ffffffffffffffffffffffffffffffffffffffff168152602001908152602001600020546127b891906131ea565b905090565b600080831180156127ce5750600082115b61280d576040517f08c379a00000000000000000000000000000000000000000000000000000000081526004016128049061372b565b60405180910390fd5b6000828461281b9190613463565b90506000858561282b9190612f68565b8261283691906131ea565b905060008185612846919061301e565b90508093505050509392505050565b6000612882600660009054906101000a900473ffffffffffffffffffffffffffffffffffffffff16611d2a565b600e60003373ffffffffffffffffffffffffffffffffffffffff1673ffffffffffffffffffffffffffffffffffffffff168152602001908152602001600020546128cc9190613463565b905090565b60006128dc30611d2a565b600f60003373ffffffffffffffffffffffffffffffffffffffff1673ffffffffffffffffffffffffffffffffffffffff168152602001908152602001600020546129269190613463565b905090565b600073ffffffffffffffffffffffffffffffffffffffff168273ffffffffffffffffffffffffffffffffffffffff160361299a576040517f08c379a000000000000000000000000000000000000000000000000000000000815260040161299190613797565b60405180910390fd5b6129a660008383612af1565b80600260008282546129b89190612f68565b92505081905550806000808473ffffffffffffffffffffffffffffffffffffffff1673ffffffffffffffffffffffffffffffffffffffff1681526020019081526020016000206000828254612a0d9190612f68565b925050819055508173ffffffffffffffffffffffffffffffffffffffff16600073ffffffffffffffffffffffffffffffffffffffff167fddf252ad1be2c89b69c2b068fc378daa952ba7f163c4a11628f55a4df523b3ef83604051612a729190612d01565b60405180910390a3612a8660008383612af6565b5050565b6000670de0b6b3a7640000600e60003373ffffffffffffffffffffffffffffffffffffffff1673ffffffffffffffffffffffffffffffffffffffff16815260200190815260200160002054600754612ae29190613463565b612aec91906131ea565b905090565b505050565b505050565b600080fd5b6000819050919050565b612b1381612b00565b8114612b1e57600080fd5b50565b600081359050612b3081612b0a565b92915050565b600060208284031215612b4c57612b4b612afb565b5b6000612b5a84828501612b21565b91505092915050565b600081519050919050565b600082825260208201905092915050565b60005b83811015612b9d578082015181840152602081019050612b82565b83811115612bac576000848401525b50505050565b6000601f19601f8301169050919050565b6000612bce82612b63565b612bd88185612b6e565b9350612be8818560208601612b7f565b612bf181612bb2565b840191505092915050565b60006020820190508181036000830152612c168184612bc3565b905092915050565b600073ffffffffffffffffffffffffffffffffffffffff82169050919050565b6000612c4982612c1e565b9050919050565b612c5981612c3e565b8114612c6457600080fd5b50565b600081359050612c7681612c50565b92915050565b60008060408385031215612c9357612c92612afb565b5b6000612ca185828601612c67565b9250506020612cb285828601612b21565b9150509250929050565b60008115159050919050565b612cd181612cbc565b82525050565b6000602082019050612cec6000830184612cc8565b92915050565b612cfb81612b00565b82525050565b6000602082019050612d166000830184612cf2565b92915050565b600060208284031215612d3257612d31612afb565b5b6000612d4084828501612c67565b91505092915050565b600080600060608486031215612d6257612d61612afb565b5b6000612d7086828701612c67565b9350506020612d8186828701612c67565b9250506040612d9286828701612b21565b9150509250925092565b600060ff82169050919050565b612db281612d9c565b82525050565b6000602082019050612dcd6000830184612da9565b92915050565b612ddc81612c3e565b82525050565b6000602082019050612df76000830184612dd3565b92915050565b60008060408385031215612e1457612e13612afb565b5b6000612e2285828601612c67565b9250506020612e3385828601612c67565b9150509250929050565b7f6e6f742067726561746572207468616e20300000000000000000000000000000600082015250565b6000612e73601283612b6e565b9150612e7e82612e3d565b602082019050919050565b60006020820190508181036000830152612ea281612e66565b9050919050565b6000606082019050612ebe6000830186612dd3565b612ecb6020830185612dd3565b612ed86040830184612cf2565b949350505050565b612ee981612cbc565b8114612ef457600080fd5b50565b600081519050612f0681612ee0565b92915050565b600060208284031215612f2257612f21612afb565b5b6000612f3084828501612ef7565b91505092915050565b7f4e487b7100000000000000000000000000000000000000000000000000000000600052601160045260246000fd5b6000612f7382612b00565b9150612f7e83612b00565b9250827fffffffffffffffffffffffffffffffffffffffffffffffffffffffffffffffff03821115612fb357612fb2612f39565b5b828201905092915050565b7f4e487b7100000000000000000000000000000000000000000000000000000000600052602260045260246000fd5b6000600282049050600182168061300557607f821691505b60208210810361301857613017612fbe565b5b50919050565b600061302982612b00565b915061303483612b00565b92508282101561304757613046612f39565b5b828203905092915050565b7f63616e6e6f74206265207a65726f000000000000000000000000000000000000600082015250565b6000613088600e83612b6e565b915061309382613052565b602082019050919050565b600060208201905081810360008301526130b78161307b565b9050919050565b60006040820190506130d36000830185612dd3565b6130e06020830184612cf2565b9392505050565b7f45524332303a2064656372656173656420616c6c6f77616e63652062656c6f7760008201527f207a65726f000000000000000000000000000000000000000000000000000000602082015250565b6000613143602583612b6e565b915061314e826130e7565b604082019050919050565b6000602082019050818103600083015261317281613136565b9050919050565b60008151905061318881612b0a565b92915050565b6000602082840312156131a4576131a3612afb565b5b60006131b284828501613179565b91505092915050565b7f4e487b7100000000000000000000000000000000000000000000000000000000600052601260045260246000fd5b60006131f582612b00565b915061320083612b00565b9250826132105761320f6131bb565b5b828204905092915050565b7f45524332303a206275726e2066726f6d20746865207a65726f2061646472657360008201527f7300000000000000000000000000000000000000000000000000000000000000602082015250565b6000613277602183612b6e565b91506132828261321b565b604082019050919050565b600060208201905081810360008301526132a68161326a565b9050919050565b7f45524332303a206275726e20616d6f756e7420657863656564732062616c616e60008201527f6365000000000000000000000000000000000000000000000000000000000000602082015250565b6000613309602283612b6e565b9150613314826132ad565b604082019050919050565b60006020820190508181036000830152613338816132fc565b9050919050565b7f45524332303a20617070726f76652066726f6d20746865207a65726f2061646460008201527f7265737300000000000000000000000000000000000000000000000000000000602082015250565b600061339b602483612b6e565b91506133a68261333f565b604082019050919050565b600060208201905081810360008301526133ca8161338e565b9050919050565b7f45524332303a20617070726f766520746f20746865207a65726f20616464726560008201527f7373000000000000000000000000000000000000000000000000000000000000602082015250565b600061342d602283612b6e565b9150613438826133d1565b604082019050919050565b6000602082019050818103600083015261345c81613420565b9050919050565b600061346e82612b00565b915061347983612b00565b9250817fffffffffffffffffffffffffffffffffffffffffffffffffffffffffffffffff04831182151516156134b2576134b1612f39565b5b828202905092915050565b7f45524332303a20696e73756666696369656e7420616c6c6f77616e6365000000600082015250565b60006134f3601d83612b6e565b91506134fe826134bd565b602082019050919050565b60006020820190508181036000830152613522816134e6565b9050919050565b7f45524332303a207472616e736665722066726f6d20746865207a65726f20616460008201527f6472657373000000000000000000000000000000000000000000000000000000602082015250565b6000613585602583612b6e565b915061359082613529565b604082019050919050565b600060208201905081810360008301526135b481613578565b9050919050565b7f45524332303a207472616e7366657220746f20746865207a65726f206164647260008201527f6573730000000000000000000000000000000000000000000000000000000000602082015250565b6000613617602383612b6e565b9150613622826135bb565b604082019050919050565b600060208201905081810360008301526136468161360a565b9050919050565b7f45524332303a207472616e7366657220616d6f756e742065786365656473206260008201527f616c616e63650000000000000000000000000000000000000000000000000000602082015250565b60006136a9602683612b6e565b91506136b48261364d565b604082019050919050565b600060208201905081810360008301526136d88161369c565b9050919050565b7f696e76616c696420726573657276657300000000000000000000000000000000600082015250565b6000613715601083612b6e565b9150613720826136df565b602082019050919050565b6000602082019050818103600083015261374481613708565b9050919050565b7f45524332303a206d696e7420746f20746865207a65726f206164647265737300600082015250565b6000613781601f83612b6e565b915061378c8261374b565b602082019050919050565b600060208201905081810360008301526137b081613774565b905091905056fea26469706673582212209cd7ae2127b559ee5b8c28251107739dadedcefca05924037058a5ee4f9335c764736f6c634300080d0033",
  "immutableReferences": {},
  "source": "pragma solidity ^0.8.13;\r\n\r\nimport \"@openzeppelin/contracts/token/ERC20/ERC20.sol\";\r\nimport \"@openzeppelin/contracts/token/ERC20/IERC20.sol\";\r\n\r\n\r\n\r\ncontract Pool is ERC20{\r\n    address private owner;\r\n    address public tokenAddress;\r\n    uint256 public tokenRewardBalance;\r\n    uint256 public etrRewardBalance;\r\n    uint256 public tokenTarget;\r\n    uint256 public etrTarget;\r\n    uint256 public totalElectricity;\r\n    address[] public tokenRewardList;\r\n    address[] public etrRewardList;\r\n    mapping(address=>uint256) public tokenRewardRecord;\r\n    mapping(address=>uint256) public etrRewardRecord;\r\n    mapping(address=>uint256) public tokenStakeBalance;\r\n    mapping(address=>uint256) public etrStakeBalance;\r\n\r\n    constructor(address token,uint256 _tokenTarget,uint256 _etrTarget) ERC20(\"Electron Token\", \"ETR\") {\r\n        tokenAddress = token;\r\n        owner = msg.sender;\r\n        tokenTarget = _tokenTarget;\r\n        etrTarget = _etrTarget;\r\n    }\r\n\r\n\r\n\r\n\r\n    /*---------------------------------------event-------------------------------------------------------------*/\r\n    event TokenBuy(\r\n        address indexed buyer,\r\n        uint256 indexed token2Sold,\r\n        uint256 indexed token1Bought\r\n    );\r\n    event EtrBuy(\r\n        address indexed buyer,\r\n        uint256 indexed token1Sold,\r\n        uint256 indexed token2Bought\r\n    );\r\n    event AddToken(\r\n        address indexed provider,\r\n        uint256 indexed token1Amount\r\n    );\r\n\r\n    event AddEtr(\r\n        address indexed provider,\r\n        uint256 indexed token2Amount\r\n    );\r\n\r\n    event RemoveToken (\r\n        address indexed provider,\r\n        uint256 indexed token1Amount\r\n    );\r\n\r\n     event RemoveEtr (\r\n        address indexed provider,\r\n        uint256 indexed token2Amount\r\n    );\r\n\r\n    event ElectricityIn (\r\n        address indexed provider,\r\n        uint256 indexed electricityAmount\r\n    );\r\n\r\n    event ElectricityOut (\r\n        address indexed provider,\r\n        uint256 indexed electricityAmount\r\n    );\r\n\r\n    event tokenRewardGiveOut (\r\n        address indexed provider,\r\n        uint256 amount\r\n    );\r\n\r\n     event etrRewardGiveOut (\r\n        address indexed provider,\r\n        uint256 amount\r\n    );\r\n/********************************notes/***************************************\r\nview tells us that by running the function, no data will be saved/changed.\r\npure tells us that not only does the function not save any data to the blockchain, but it also doesn't read any data from the blockchain.\r\n\r\n\r\n\r\n\r\n/********************************notes/****************************************/\r\n\r\n\r\n\r\n    \r\n    /*----------------------------private function-----------------------------*/\r\n    function getReserve(address _tokenAddress) public view returns (uint256) {\r\n        return IERC20(_tokenAddress).balanceOf(address(this));\r\n    }\r\n\r\n\r\n    function getAmount(\r\n        uint256 inputAmount,\r\n        uint256 inputReserve,\r\n        uint256 outputReserve\r\n    ) private pure returns (uint256) {\r\n        require(inputReserve > 0 && outputReserve > 0, \"invalid reserves\");\r\n        // 3% fee\r\n        uint256 inputAmountWithFee = inputAmount * 97;\r\n        uint256 numerator = inputAmountWithFee * outputReserve;\r\n        uint256 denominator = (inputReserve * 100) + inputAmountWithFee;\r\n        return numerator / denominator;\r\n    }\r\n\r\n    function getAmountNofee(\r\n        uint256 inputAmount,\r\n        uint256 inputReserve,\r\n        uint256 outputReserve\r\n    ) private pure returns (uint256){\r\n        require(inputReserve > 0 && outputReserve > 0, \"invalid reserves\");\r\n        uint256 k = inputReserve*outputReserve;\r\n        uint256 new_reserve = k/(inputReserve + inputAmount);\r\n        uint256 output_no_fee = outputReserve - new_reserve;\r\n        return output_no_fee;\r\n    }\r\n\r\n    function getTokenPercentage() private view returns (uint256){\r\n        return tokenStakeBalance[msg.sender]/getReserve(tokenAddress);\r\n    }\r\n\r\n    function getEtrPercentage() private  view returns (uint256){\r\n        return etrStakeBalance[msg.sender]/getReserve(address(this));\r\n    }\r\n\r\n    function giveOutTokenReward() private view returns (uint256){\r\n        return tokenRewardBalance*tokenRewardRecord[msg.sender]/(10**18);\r\n    }\r\n\r\n    function giveOutEtrReward() private  view returns (uint256){\r\n        return etrRewardBalance*etrRewardRecord[msg.sender]/(10**18);\r\n    }\r\n\r\n    function updateCurrentStakeToken() private  view returns (uint256){\r\n        return tokenRewardRecord[msg.sender]*getReserve(tokenAddress);\r\n    }\r\n\r\n    function updateCurrentStakeEtr() private  view returns (uint256){\r\n        return etrRewardRecord[msg.sender]*getReserve(address(this));\r\n    }\r\n\r\n    /*------------------------liquidity----------------------------*/\r\n    function EtrToTokenSwap(uint256 amount) external  {\r\n        require(amount > 0 ,'not greater than 0');\r\n        uint256 tokenReserve = getReserve(tokenAddress);\r\n        uint256 etrReserve = getReserve(address(this));\r\n\r\n        uint256 token_out = getAmount(amount,etrReserve,tokenReserve);\r\n        uint256 token_virtual_out = getAmountNofee(amount,etrReserve,tokenReserve);\r\n        uint256 reward = token_virtual_out - token_out;\r\n        tokenRewardBalance += reward;\r\n        IERC20(address(this)).transferFrom(msg.sender,address(this),amount);\r\n        IERC20(tokenAddress).transfer(msg.sender,token_out);\r\n        tokenStakeBalance[msg.sender] = updateCurrentStakeToken();\r\n        etrStakeBalance[msg.sender] = updateCurrentStakeEtr();\r\n        emit TokenBuy(msg.sender,amount,token_out);\r\n        \r\n\r\n    }\r\n\r\n     function tokenToEtrSwap(uint256 amount) external  {\r\n        require(amount > 0 ,'not greater than 0');\r\n        uint256 tokenReserve = getReserve(tokenAddress);\r\n        uint256 etrReserve = getReserve(address(this));\r\n\r\n        uint256 etrOut = getAmount(amount,tokenReserve,etrReserve);\r\n        uint256 etr_virtual_out = getAmountNofee(amount,tokenReserve,etrReserve);\r\n        uint256 reward = etr_virtual_out-etrOut;\r\n        etrRewardBalance += reward;\r\n        IERC20(tokenAddress).transferFrom(msg.sender,address(this),amount);\r\n        IERC20(address(this)).transfer(msg.sender,etrOut);\r\n        tokenStakeBalance[msg.sender] = updateCurrentStakeToken();\r\n        etrStakeBalance[msg.sender] = updateCurrentStakeEtr();\r\n        emit EtrBuy(msg.sender,amount,etrOut);\r\n    }\r\n\r\n\r\n    function addTokenLiquidity(uint256 amount) external  {\r\n        require(amount > 0 ,'not greater than 0');\r\n        IERC20(tokenAddress).transferFrom(msg.sender,address(this),amount);\r\n        tokenStakeBalance[msg.sender] += amount;\r\n        tokenRewardRecord[msg.sender] = getTokenPercentage();\r\n        emit AddToken(msg.sender, amount);\r\n    }\r\n\r\n    function addEtrLiquidity(uint256 amount) external  {\r\n        require(amount > 0 ,'not greater than 0');\r\n        IERC20(address(this)).transferFrom(msg.sender,address(this),amount);\r\n        etrStakeBalance[msg.sender] += amount;\r\n        etrRewardRecord[msg.sender] =  getEtrPercentage();\r\n        emit AddEtr(msg.sender, amount);\r\n    }\r\n\r\n\r\n    function withdrawTokenLiquidity(uint256 amount) external {\r\n        require(amount > 0 ,'not greater than 0');\r\n        uint256 reward = giveOutTokenReward(); \r\n        tokenStakeBalance[msg.sender] -= amount;\r\n        uint256 ratio = getTokenPercentage();\r\n        tokenRewardRecord[msg.sender] = ratio;\r\n        IERC20(tokenAddress).transferFrom(address(this),msg.sender,amount+reward);\r\n        emit RemoveToken(msg.sender, amount);\r\n    }\r\n\r\n    function withdrawEtrLiquidity(uint256 amount) external {\r\n        require(amount > 0 ,'not greater than 0');\r\n        uint256 reward = giveOutEtrReward();\r\n        etrStakeBalance[msg.sender] -= amount;\r\n        uint256 ratio = getEtrPercentage();\r\n        etrRewardRecord[msg.sender] = ratio;\r\n        IERC20(address(this)).transferFrom(address(this),msg.sender,amount+reward);\r\n        emit RemoveEtr(msg.sender, amount);\r\n    }\r\n\r\n\r\n    function electricityToEtr(uint256 _electricityIn) public  {\r\n        require(_electricityIn > 0 ,'not greater than 0');\r\n        _mint(msg.sender,_electricityIn);\r\n        emit ElectricityIn(msg.sender,_electricityIn);\r\n    }\r\n\r\n    function etrToElectricity(uint256 _electricityOut) public  {\r\n        require(_electricityOut > 0 ,'not greater than 0');\r\n        _burn(msg.sender,_electricityOut);\r\n        emit ElectricityOut(msg.sender,_electricityOut);\r\n    }\r\n\r\n\r\n\r\n\r\n\r\n\r\n    /*----------------------view---------------------------*/\r\n    function getTokenAmount(uint256 _etrIn) public view returns (uint256){\r\n        require(_etrIn > 0 ,'cannot be zero');\r\n        uint256 tokenReserve = getReserve(tokenAddress);\r\n        uint256 etrReserve = getReserve(address(this));\r\n        return getAmount(_etrIn,etrReserve,tokenReserve);\r\n    }\r\n\r\n    function getEtrAmount(uint256 _tokenin) public view returns (uint256){\r\n        require(_tokenin > 0 ,'cannot be zero');\r\n        uint256 tokenReserve = getReserve(tokenAddress);\r\n        uint256 etrReserve = getReserve(address(this));\r\n        return getAmount(_tokenin,tokenReserve,etrReserve);\r\n    }\r\n\r\n     function getEtrAmountNofee(uint256 _tokenin) public view returns (uint256){\r\n        require(_tokenin > 0 ,'cannot be zero');\r\n        uint256 tokenReserve = getReserve(tokenAddress);\r\n        uint256 etrReserve = getReserve(address(this));\r\n        return getAmountNofee(_tokenin,tokenReserve,etrReserve);\r\n    }\r\n\r\n    function getTotalEtrReserve() public view returns(uint256){\r\n        return getReserve(address(this));\r\n    }\r\n\r\n    function getTotalEtrSupply() public view returns(uint256){\r\n        return totalSupply();\r\n    }\r\n\r\n    function getTotalTokenReserve() public view returns(uint256){\r\n        return getReserve(tokenAddress);\r\n    }\r\n\r\n    function getCurrentPrice() public view returns(uint256){\r\n        return getReserve(tokenAddress)/getReserve(address(this));\r\n    }\r\n\r\n    function getTokenRewardBalance() public view returns(uint256){\r\n        return tokenRewardBalance;\r\n    }\r\n\r\n    function getEtrRewardBalance() public view returns(uint256){\r\n        return etrRewardBalance;\r\n    }\r\n\r\n    function getTokenRewardRatio() public view returns(uint256){\r\n        return tokenRewardRecord[msg.sender];\r\n    }\r\n\r\n    function getEtrRewardRatio() public view returns(uint256){\r\n        return etrRewardRecord[msg.sender];\r\n    }\r\n\r\n    function getMyTokenStakeBalance() public view returns(uint256){\r\n        return tokenStakeBalance[msg.sender];\r\n    }\r\n\r\n    function getMyEtrStakeBalance() public view returns(uint256){\r\n        return etrStakeBalance[msg.sender];\r\n    }\r\n\r\n\r\n\r\n\r\n}\r\n",
  "sourcePath": "C:\\Users\\Hong\\Desktop\\electron\\Frontend\\contracts\\Pool.sol",
  "compiler": {
    "name": "solc",
    "version": "0.8.13+commit.abaa5c0e.Emscripten.clang"
  },
  "schemaVersion": "3.4.7",
  "updatedAt": "2022-08-02T10:58:17.877Z",
  "networkType": "ethereum",
  "devdoc": {
    "kind": "dev",
    "methods": {
      "allowance(address,address)": {
        "details": "See {IERC20-allowance}."
      },
      "approve(address,uint256)": {
        "details": "See {IERC20-approve}. NOTE: If `amount` is the maximum `uint256`, the allowance is not updated on `transferFrom`. This is semantically equivalent to an infinite approval. Requirements: - `spender` cannot be the zero address."
      },
      "balanceOf(address)": {
        "details": "See {IERC20-balanceOf}."
      },
      "decimals()": {
        "details": "Returns the number of decimals used to get its user representation. For example, if `decimals` equals `2`, a balance of `505` tokens should be displayed to a user as `5.05` (`505 / 10 ** 2`). Tokens usually opt for a value of 18, imitating the relationship between Ether and Wei. This is the value {ERC20} uses, unless this function is overridden; NOTE: This information is only used for _display_ purposes: it in no way affects any of the arithmetic of the contract, including {IERC20-balanceOf} and {IERC20-transfer}."
      },
      "decreaseAllowance(address,uint256)": {
        "details": "Atomically decreases the allowance granted to `spender` by the caller. This is an alternative to {approve} that can be used as a mitigation for problems described in {IERC20-approve}. Emits an {Approval} event indicating the updated allowance. Requirements: - `spender` cannot be the zero address. - `spender` must have allowance for the caller of at least `subtractedValue`."
      },
      "increaseAllowance(address,uint256)": {
        "details": "Atomically increases the allowance granted to `spender` by the caller. This is an alternative to {approve} that can be used as a mitigation for problems described in {IERC20-approve}. Emits an {Approval} event indicating the updated allowance. Requirements: - `spender` cannot be the zero address."
      },
      "name()": {
        "details": "Returns the name of the token."
      },
      "symbol()": {
        "details": "Returns the symbol of the token, usually a shorter version of the name."
      },
      "totalSupply()": {
        "details": "See {IERC20-totalSupply}."
      },
      "transfer(address,uint256)": {
        "details": "See {IERC20-transfer}. Requirements: - `to` cannot be the zero address. - the caller must have a balance of at least `amount`."
      },
      "transferFrom(address,address,uint256)": {
        "details": "See {IERC20-transferFrom}. Emits an {Approval} event indicating the updated allowance. This is not required by the EIP. See the note at the beginning of {ERC20}. NOTE: Does not update the allowance if the current allowance is the maximum `uint256`. Requirements: - `from` and `to` cannot be the zero address. - `from` must have a balance of at least `amount`. - the caller must have allowance for ``from``'s tokens of at least `amount`."
      }
    },
    "version": 1
  },
  "userdoc": {
    "kind": "user",
    "methods": {},
    "version": 1
  }
}